Microchip MPLAB XC8 Compiler V1.34 ()

Linker command line:

--edf=C:\Program Files (x86)\Microchip\xc8\v1.34\dat\en_msgs.txt -cs \
  -h+dist/default/production\lcd.X.production.sym \
  --cmf=dist/default/production\lcd.X.production.cmf -z -Q16F628A \
  -oC:\Users\99E7~1\AppData\Local\Temp\s8uk.6 \
  -Mdist/default/production/lcd.X.production.map -E1 -ver=XC8 \
  -ASTACK=0A0h-0efh -pstack=STACK -ACODE=00h-07FFh -ASTRCODE=00h-07FFh \
  -ASTRING=00h-0FFhx8 -ACONST=00h-0FFhx8 -AENTRY=00h-0FFhx8 \
  -ACOMMON=070h-07Fh -ABANK0=020h-06Fh -ABANK1=0A0h-0EFh \
  -ABANK2=0120h-014Fh -ARAM=020h-06Fh,0A0h-0EFh,0120h-014Fh \
  -AABS1=020h-07Fh,0A0h-0EFh,0120h-014Fh -ASFR0=00h-01Fh -ASFR1=080h-09Fh \
  -ASFR2=0100h-011Fh -ASFR3=0180h-01EFh \
  -preset_vec=00h,intentry=04h,init,end_init -ppowerup=CODE -pcinit=CODE \
  -pfunctab=CODE -ACONFIG=02007h-02007h -pconfig=CONFIG -DCONFIG=2 \
  -AIDLOC=02000h-02003h -pidloc=IDLOC -DIDLOC=2 -AEEDATA=00h-07Fh/02100h \
  -peeprom_data=EEDATA -DEEDATA=2 -DCODE=2 -DSTRCODE=2 -DSTRING=2 -DCONST=2 \
  -DENTRY=2 -k C:\Users\99E7~1\AppData\Local\Temp\s8uk.obj \
  dist/default/production\lcd.X.production.obj 

Object code version is 3.11

Machine type is 16F628A



                Name                               Link     Load   Length Selector   Space Scale
C:\Users\99E7~1\AppData\Local\Temp\s8uk.obj
                end_init                              C        C        1        8       0
                reset_vec                             0        0        1        0       0
                config                             2007     2007        1     400E       0
dist/default/production\lcd.X.production.obj
                cinit                                 D        D       15        8       0
                intentry                              4        4        8        8       0
                text7                               16C      16C       27      1DC       0
                text6                               193      193       26      1DC       0
                text5                               1F0      1F0       14      1DC       0
                text4                               13C      13C       30      1DC       0
                text3                               1D5      1D5       1B      1DC       0
                text2                               1B9      1B9       1C      1DC       0
                text1                                22       22       7B        8       0
                maintext                             EE       EE       4E      1DC       0
                cstackBANK0                          20       20       18       20       1
                cstackCOMMON                         70       70        6       70       1
                dataBANK0                            38       38        7       20       1
                bssCOMMON                            76       76        5       70       1
                strings                              9D       9D       51      13A       0

TOTAL           Name                               Link     Load   Length     Space
        CLASS   STACK          

        CLASS   CODE           
                end_init                              C        C        1         0
                cinit                                 D        D       15         0
                intentry                              4        4        8         0
                reset_vec                             0        0        1         0
                text7                               16C      16C       27         0
                text6                               193      193       26         0
                text5                               1F0      1F0       14         0
                text4                               13C      13C       30         0
                text3                               1D5      1D5       1B         0
                text2                               1B9      1B9       1C         0
                text1                                22       22       7B         0
                maintext                             EE       EE       4E         0

        CLASS   STRCODE        

        CLASS   STRING         
                strings                              9D       9D       51         0

        CLASS   CONST          

        CLASS   ENTRY          

        CLASS   COMMON         
                cstackCOMMON                         70       70        6         1
                bssCOMMON                            76       76        5         1

        CLASS   BANK0          
                cstackBANK0                          20       20       18         1
                dataBANK0                            38       38        7         1

        CLASS   BANK1          

        CLASS   BANK2          

        CLASS   RAM            

        CLASS   ABS1           
                abs_s1                               7E       7E        2         1

        CLASS   SFR0           

        CLASS   SFR1           

        CLASS   SFR2           

        CLASS   SFR3           

        CLASS   CONFIG         
                config                             2007     2007        1         0

        CLASS   IDLOC          

        CLASS   EEDATA         

        CLASS   BANK3          



SEGMENTS        Name                           Load    Length   Top    Selector   Space  Class     Delta

                reset_vec                      000000  000001  000001         0       0  CODE        2
                intentry                       000004  000099  00009D         8       0  CODE        2
                cstackBANK0                    000020  00001F  00003F        20       1  BANK0       1
                cstackCOMMON                   000070  00000B  00007B        70       1  COMMON      1
                strings                        00009D  000051  0000EE       13A       0  STRING      2
                maintext                       0000EE  000116  000204       1DC       0  CODE        2
                config                         002007  000001  002008      400E       0  CONFIG      2


UNUSED ADDRESS RANGES

        Name                Unused          Largest block    Delta
        BANK0            003F-006F             31           1
        BANK1            00A0-00EF             50           1
        BANK2            0120-014F             30           1
        CODE             0001-0003              3           2
                         0204-07FF            5FC
        COMMON           007B-007D              3           1
        CONST            0001-0003              3           2
                         0204-07FF            100
        EEDATA           2100-217F             80           2
        ENTRY            0001-0003              3           2
                         0204-07FF            100
        IDLOC            2000-2003              4           2
        RAM              003F-006F             31           1
                         00A0-00EF             50
                         0120-014F             30
        SFR0             0000-001F             20           1
        SFR1             0080-009F             20           1
        SFR2             0100-011F             20           1
        SFR3             0180-01EF             70           1
        STACK            00A0-00EF             50           1
        STRCODE          0001-0003              3           2
                         0204-07FF            5FC
        STRING           0001-0003              3           2
                         0204-07FF            100

                                  Symbol Table

Lcd_Cmd@a                cstackBANK0  0020
Lcd_Port@a               cstackCOMMON 0073
_Deltas                  dataBANK0    0038
_GIE                     (abs)        005F
_Lcd_Cmd                 text5        01F0
_Lcd_Init                text4        013C
_Lcd_Port                text6        0193
_OPTION_REG              (abs)        0081
_Order                   dataBANK0    003C
_PORTA                   (abs)        0005
_RB0                     (abs)        0030
_RB1                     (abs)        0031
_RB2                     (abs)        0032
_RB3                     (abs)        0033
_RB4                     (abs)        0034
_RB5                     (abs)        0035
_RGB_values              bssCOMMON    0076
_SIN_TABLE               strings      00A3
_T0IE                    (abs)        005D
_T0IF                    (abs)        005A
_TMR0                    (abs)        0001
_TRISA                   (abs)        0085
_TRISB                   (abs)        0086
__CFG_BOREN$OFF          (abs)        0000
__CFG_CP$OFF             (abs)        0000
__CFG_CPD$OFF            (abs)        0000
__CFG_FOSC$INTOSCIO      (abs)        0000
__CFG_LVP$OFF            (abs)        0000
__CFG_MCLRE$OFF          (abs)        0000
__CFG_PWRTE$ON           (abs)        0000
__CFG_WDTE$OFF           (abs)        0000
__Habs1                  abs1         0000
__Hbank0                 bank0        0000
__Hbank1                 bank1        0000
__Hbank2                 bank2        0000
__Hbank3                 bank3        0000
__HbssCOMMON             bssCOMMON    0000
__Hcinit                 cinit        0022
__Hclrtext               clrtext      0000
__Hcode                  code         0000
__Hcommon                common       0000
__Hconfig                config       2008
__HcstackBANK0           cstackBANK0  0000
__HcstackCOMMON          cstackCOMMON 0000
__HdataBANK0             dataBANK0    0000
__Heeprom_data           eeprom_data  0000
__Hend_init              end_init     000D
__Hfunctab               functab      0000
__HidataBANK0            idataBANK0   0000
__Hidloc                 idloc        0000
__Hinit                  init         000C
__Hintentry              intentry     000C
__Hmaintext              maintext     0000
__Hpa_nodes              pa_nodes     0000
__Hpowerup               powerup      0000
__Hram                   ram          0000
__Hreset_vec             reset_vec    0001
__Hsfr0                  sfr0         0000
__Hsfr1                  sfr1         0000
__Hsfr2                  sfr2         0000
__Hsfr3                  sfr3         0000
__Hspace_0               (abs)        2008
__Hspace_1               (abs)        007B
__Hspace_2               (abs)        0000
__Hspace_3               (abs)        0000
__Hstack                 stack        0000
__Hstrings               strings      0000
__Htext                  text         0000
__Labs1                  abs1         0000
__Lbank0                 bank0        0000
__Lbank1                 bank1        0000
__Lbank2                 bank2        0000
__Lbank3                 bank3        0000
__LbssCOMMON             bssCOMMON    0000
__Lcinit                 cinit        000D
__Lclrtext               clrtext      0000
__Lcode                  code         0000
__Lcommon                common       0000
__Lconfig                config       2007
__LcstackBANK0           cstackBANK0  0000
__LcstackCOMMON          cstackCOMMON 0000
__LdataBANK0             dataBANK0    0000
__Leeprom_data           eeprom_data  0000
__Lend_init              end_init     000C
__Lfunctab               functab      0000
__LidataBANK0            idataBANK0   0000
__Lidloc                 idloc        0000
__Linit                  init         000C
__Lintentry              intentry     0004
__Lmaintext              maintext     0000
__Lpa_nodes              pa_nodes     0000
__Lpowerup               powerup      0000
__Lram                   ram          0000
__Lreset_vec             reset_vec    0000
__Lsfr0                  sfr0         0000
__Lsfr1                  sfr1         0000
__Lsfr2                  sfr2         0000
__Lsfr3                  sfr3         0000
__Lspace_0               (abs)        0000
__Lspace_1               (abs)        0000
__Lspace_2               (abs)        0000
__Lspace_3               (abs)        0000
__Lstack                 stack        0000
__Lstrings               strings      0000
__Ltext                  text         0000
__S0                     (abs)        2008
__S1                     (abs)        007B
__S2                     (abs)        0000
__S3                     (abs)        0000
___int_sp                stack        0000
___latbits               (abs)        0000
___lbdiv                 text3        01D5
___lbdiv@counter         cstackBANK0  0021
___lbdiv@dividend        cstackBANK0  0020
___lbdiv@divisor         cstackCOMMON 0073
___lbdiv@quotient        cstackBANK0  0022
___lbmod                 text2        01B9
___lbmod@counter         cstackBANK0  0021
___lbmod@dividend        cstackBANK0  0020
___lbmod@divisor         cstackCOMMON 0073
___lbmod@rem             cstackBANK0  0022
___sp                    stack        0000
__end_of_Lcd_Cmd         text5        0204
__end_of_Lcd_Init        text4        016C
__end_of_Lcd_Port        text6        01B9
__end_of_SIN_TABLE       strings      00EB
__end_of___lbdiv         text3        01F0
__end_of___lbmod         text2        01D5
__end_of__initialization cinit        0020
__end_of__stringtab      strings      00A3
__end_of_main            maintext     013C
__end_of_on_timer        text7        0193
__end_of_set_color       text1        009D
__end_ofset_color@Masks  strings      00EE
__initialization         cinit        000D
__pbssCOMMON             bssCOMMON    0076
__pcstackBANK0           cstackBANK0  0020
__pcstackCOMMON          cstackCOMMON 0070
__pdataBANK0             dataBANK0    0038
__pidataBANK0            idataBANK0   0000
__pintentry              intentry     0004
__pmaintext              maintext     00EE
__pstrings               strings      009D
__ptext1                 text1        0022
__ptext2                 text2        01B9
__ptext3                 text3        01D5
__ptext4                 text4        013C
__ptext5                 text5        01F0
__ptext6                 text6        0193
__ptext7                 text7        016C
__size_of_Lcd_Cmd        (abs)        0000
__size_of_Lcd_Init       (abs)        0000
__size_of_Lcd_Port       (abs)        0000
__size_of___lbdiv        (abs)        0000
__size_of___lbmod        (abs)        0000
__size_of_main           (abs)        0000
__size_of_on_timer       (abs)        0000
__size_of_set_color      (abs)        0000
__stringbase             strings      00A2
__stringtab              strings      009D
_main                    maintext     00EE
_on_timer                text7        016C
_set_color               text1        0022
btemp                    (abs)        007E
end_of_initialization    cinit        0020
interrupt_function       intentry     0004
intlevel0                functab      0000
intlevel1                functab      0000
intlevel2                functab      0000
intlevel3                functab      0000
intlevel4                functab      0000
intlevel5                functab      0000
ltemp                    (abs)        007E
ltemp0                   (abs)        007E
ltemp1                   (abs)        0082
ltemp2                   (abs)        0086
ltemp3                   (abs)        0080
main@i                   cstackBANK0  0034
main@j                   cstackBANK0  0035
main@k                   cstackBANK0  0036
main@n                   cstackBANK0  0037
main@str                 cstackBANK0  002B
on_timer@i               bssCOMMON    0079
on_timer@port_mirror     bssCOMMON    007A
reset_vec                reset_vec    0000
saved_w                  (abs)        007E
set_color@Masks          strings      00EB
set_color@b              cstackCOMMON 0074
set_color@g              cstackCOMMON 0073
set_color@i              cstackBANK0  0027
set_color@i_89           cstackBANK0  0026
set_color@max_i          cstackBANK0  0024
set_color@mid_i          cstackBANK0  0023
set_color@min_i          cstackBANK0  0025
set_color@r              cstackBANK0  0022
stackhi                  (abs)        0000
stacklo                  (abs)        0000
start                    init         000C
start_initialization     cinit        000D
ttemp                    (abs)        007E
ttemp0                   (abs)        007E
ttemp1                   (abs)        0081
ttemp2                   (abs)        0084
ttemp3                   (abs)        0087
ttemp4                   (abs)        007F
wtemp                    (abs)        007E
wtemp0                   (abs)        007E
wtemp1                   (abs)        0080
wtemp2                   (abs)        0082
wtemp3                   (abs)        0084
wtemp4                   (abs)        0086
wtemp5                   (abs)        0088
wtemp6                   (abs)        007F


FUNCTION INFORMATION:

 *************** function _main *****************
 Defined at:
		line 210 in file "main.c"
 Parameters:    Size  Location     Type
		None
 Auto vars:     Size  Location     Type
  n               1   23[BANK0 ] unsigned char 
  k               1   22[BANK0 ] unsigned char 
  j               1   21[BANK0 ] unsigned char 
  i               1   20[BANK0 ] unsigned char 
  str             9   11[BANK0 ] unsigned char [9]
 Return value:  Size  Location     Type
                  2  128[None  ] int 
 Registers used:
		wreg, fsr0l, fsr0h, status,2, status,0, pclath, cstack
 Tracked objects:
		On entry : 
		On exit  : 
		Unchanged: 
 Data sizes:     COMMON   BANK0   BANK1   BANK2
      Params:         0       0       0       0
      Locals:         0      13       0       0
      Temps:          0       3       0       0
      Totals:         0      16       0       0
Total ram usage:       16 bytes
 Hardware stack levels required when called:    4
 This function calls:
		_Lcd_Init
		___lbdiv
		___lbmod
		_set_color
 This function is called by:
		Startup code after reset
 This function uses a non-reentrant model


 *************** function _set_color *****************
 Defined at:
		line 114 in file "main.c"
 Parameters:    Size  Location     Type
  r               1    wreg     unsigned char 
  g               1    3[COMMON] unsigned char 
  b               1    4[COMMON] unsigned char 
 Auto vars:     Size  Location     Type
  r               1    2[BANK0 ] unsigned char 
  i               1    6[BANK0 ] unsigned char 
  i               1    7[BANK0 ] unsigned char 
  min_i           1    5[BANK0 ] unsigned char 
  max_i           1    4[BANK0 ] unsigned char 
  mid_i           1    3[BANK0 ] unsigned char 
 Return value:  Size  Location     Type
		None               void
 Registers used:
		wreg, fsr0l, fsr0h, status,2, status,0, pclath
 Tracked objects:
		On entry : 
		On exit  : 
		Unchanged: 
 Data sizes:     COMMON   BANK0   BANK1   BANK2
      Params:         2       0       0       0
      Locals:         0       6       0       0
      Temps:          0       2       0       0
      Totals:         2       8       0       0
Total ram usage:       10 bytes
 Hardware stack levels used:    2
 Hardware stack levels required when called:    1
 This function calls:
		Nothing
 This function is called by:
		_main
 This function uses a non-reentrant model


 *************** function ___lbmod *****************
 Defined at:
		line 4 in file "C:\Program Files (x86)\Microchip\xc8\v1.34\sources\common\lbmod.c"
 Parameters:    Size  Location     Type
  dividend        1    wreg     unsigned char 
  divisor         1    3[COMMON] unsigned char 
 Auto vars:     Size  Location     Type
  dividend        1    0[BANK0 ] unsigned char 
  rem             1    2[BANK0 ] unsigned char 
  counter         1    1[BANK0 ] unsigned char 
 Return value:  Size  Location     Type
                  1    wreg      unsigned char 
 Registers used:
		wreg, status,2, status,0
 Tracked objects:
		On entry : 
		On exit  : 
		Unchanged: 
 Data sizes:     COMMON   BANK0   BANK1   BANK2
      Params:         1       0       0       0
      Locals:         0       3       0       0
      Temps:          1       0       0       0
      Totals:         2       3       0       0
Total ram usage:        5 bytes
 Hardware stack levels used:    1
 Hardware stack levels required when called:    1
 This function calls:
		Nothing
 This function is called by:
		_main
 This function uses a non-reentrant model


 *************** function ___lbdiv *****************
 Defined at:
		line 4 in file "C:\Program Files (x86)\Microchip\xc8\v1.34\sources\common\lbdiv.c"
 Parameters:    Size  Location     Type
  dividend        1    wreg     unsigned char 
  divisor         1    3[COMMON] unsigned char 
 Auto vars:     Size  Location     Type
  dividend        1    0[BANK0 ] unsigned char 
  quotient        1    2[BANK0 ] unsigned char 
  counter         1    1[BANK0 ] unsigned char 
 Return value:  Size  Location     Type
                  1    wreg      unsigned char 
 Registers used:
		wreg, status,2, status,0
 Tracked objects:
		On entry : 
		On exit  : 
		Unchanged: 
 Data sizes:     COMMON   BANK0   BANK1   BANK2
      Params:         1       0       0       0
      Locals:         0       3       0       0
      Temps:          0       0       0       0
      Totals:         1       3       0       0
Total ram usage:        4 bytes
 Hardware stack levels used:    1
 Hardware stack levels required when called:    1
 This function calls:
		Nothing
 This function is called by:
		_main
 This function uses a non-reentrant model


 *************** function _Lcd_Init *****************
 Defined at:
		line 62 in file "lcd.h"
 Parameters:    Size  Location     Type
		None
 Auto vars:     Size  Location     Type
		None
 Return value:  Size  Location     Type
		None               void
 Registers used:
		wreg, status,2, status,0, pclath, cstack
 Tracked objects:
		On entry : 
		On exit  : 
		Unchanged: 
 Data sizes:     COMMON   BANK0   BANK1   BANK2
      Params:         0       0       0       0
      Locals:         0       0       0       0
      Temps:          0       2       0       0
      Totals:         0       2       0       0
Total ram usage:        2 bytes
 Hardware stack levels used:    1
 Hardware stack levels required when called:    3
 This function calls:
		_Lcd_Cmd
		_Lcd_Port
 This function is called by:
		_main
 This function uses a non-reentrant model


 *************** function _Lcd_Cmd *****************
 Defined at:
		line 26 in file "lcd.h"
 Parameters:    Size  Location     Type
  a               1    wreg     unsigned char 
 Auto vars:     Size  Location     Type
  a               1    0[BANK0 ] unsigned char 
 Return value:  Size  Location     Type
		None               void
 Registers used:
		wreg, status,2, status,0, pclath, cstack
 Tracked objects:
		On entry : 
		On exit  : 
		Unchanged: 
 Data sizes:     COMMON   BANK0   BANK1   BANK2
      Params:         0       0       0       0
      Locals:         0       1       0       0
      Temps:          2       0       0       0
      Totals:         2       1       0       0
Total ram usage:        3 bytes
 Hardware stack levels used:    1
 Hardware stack levels required when called:    2
 This function calls:
		_Lcd_Port
 This function is called by:
		_Lcd_Init
 This function uses a non-reentrant model


 *************** function _Lcd_Port *****************
 Defined at:
		line 4 in file "lcd.h"
 Parameters:    Size  Location     Type
  a               1    wreg     unsigned char 
 Auto vars:     Size  Location     Type
  a               1    3[COMMON] unsigned char 
 Return value:  Size  Location     Type
		None               void
 Registers used:
		wreg
 Tracked objects:
		On entry : 
		On exit  : 
		Unchanged: 
 Data sizes:     COMMON   BANK0   BANK1   BANK2
      Params:         0       0       0       0
      Locals:         1       0       0       0
      Temps:          0       0       0       0
      Totals:         1       0       0       0
Total ram usage:        1 bytes
 Hardware stack levels used:    1
 Hardware stack levels required when called:    1
 This function calls:
		Nothing
 This function is called by:
		_Lcd_Cmd
		_Lcd_Init
 This function uses a non-reentrant model


 *************** function _on_timer *****************
 Defined at:
		line 156 in file "main.c"
 Parameters:    Size  Location     Type
		None
 Auto vars:     Size  Location     Type
		None
 Return value:  Size  Location     Type
		None               void
 Registers used:
		wreg, fsr0l, fsr0h, status,2, status,0
 Tracked objects:
		On entry : 
		On exit  : 
		Unchanged: 
 Data sizes:     COMMON   BANK0   BANK1   BANK2
      Params:         0       0       0       0
      Locals:         0       0       0       0
      Temps:          3       0       0       0
      Totals:         3       0       0       0
Total ram usage:        3 bytes
 Hardware stack levels used:    1
 This function calls:
		Nothing
 This function is called by:
		Interrupt level 1
 This function uses a non-reentrant model



MODULE INFORMATION

Module		Function		Class		Link	Load	Size
C:\Program Files (x86)\Microchip\xc8\v1.34\sources\common\lbdiv.c
		___lbdiv       		CODE           	01D5	0000	28

C:\Program Files (x86)\Microchip\xc8\v1.34\sources\common\lbdiv.c estimated size: 28

shared
		__stringtab    		STRING         	009D	0000	7
		set_color@Masks		STRING         	00EB	0000	4
		_SIN_TABLE     		STRING         	00A3	0000	73
		__initializatio		CODE           	000D	0000	20

shared estimated size: 104

C:\Program Files (x86)\Microchip\xc8\v1.34\sources\common\lbmod.c
		___lbmod       		CODE           	01B9	0000	29

C:\Program Files (x86)\Microchip\xc8\v1.34\sources\common\lbmod.c estimated size: 29

lcd.h
		_Lcd_Init      		CODE           	013C	0000	49
		_Lcd_Cmd       		CODE           	01F0	0000	21
		_Lcd_Port      		CODE           	0193	0000	39

lcd.h estimated size: 109

main.c
		_set_color     		CODE           	0022	0000	124
		_main          		CODE           	00EE	0000	79
		_on_timer      		CODE           	016C	0000	40

main.c estimated size: 243

