

Microchip Technology PIC PRO Macro Assembler V1.37 build -260352376 
                                                                                               Tue Apr 05 00:05:28 2016

Microchip Technology Omniscient Code Generator v1.37 (PRO mode) build 201603110536
     1                           	processor	16LF1823
     2                           	opt	pw 120
     3                           	opt	pm
     4                           	psect	stringtext,global,class=STRCODE,delta=2
     5                           	psect	nvBANK0,global,class=BANK0,space=1,delta=1
     6                           	psect	cinit,global,class=CODE,merge=1,delta=2
     7                           	psect	bssCOMMON,global,class=COMMON,space=1,delta=1
     8                           	psect	bssBANK0,global,class=BANK0,space=1,delta=1
     9                           	psect	cstackCOMMON,global,class=COMMON,space=1,delta=1
    10                           	psect	cstackBANK0,global,class=BANK0,space=1,delta=1
    11                           	psect	maintext,global,class=CODE,merge=1,split=1,delta=2
    12                           	psect	text1,local,class=CODE,merge=1,delta=2
    13                           	psect	text2,local,class=CODE,merge=1,delta=2
    14                           	psect	text3,local,class=CODE,merge=1,delta=2
    15                           	psect	text4,local,class=CODE,merge=1,delta=2
    16                           	psect	text5,local,class=CODE,merge=1,delta=2
    17                           	psect	text6,local,class=CODE,merge=1,delta=2
    18                           	psect	text7,local,class=CODE,merge=1,delta=2
    19                           	psect	text8,local,class=CODE,merge=1,delta=2
    20                           	psect	intentry,global,class=CODE,delta=2
    21                           	psect	text10,local,class=CODE,merge=1,delta=2
    22                           	psect	text11,local,class=CODE,merge=1,delta=2
    23                           	psect	text12,local,class=CODE,merge=1,delta=2
    24                           	psect	text13,local,class=CODE,merge=1,delta=2
    25                           	psect	text14,local,class=CODE,merge=1,delta=2
    26                           	psect	text15,local,class=CODE,merge=1,delta=2
    27                           	psect	text16,local,class=CODE,merge=1,delta=2
    28                           	psect	pa_nodes,global,class=CODE,delta=2
    29                           	dabs	1,0x7E,2
    30  0000                     	;# 
    31  0001                     	;# 
    32  0002                     	;# 
    33  0003                     	;# 
    34  0004                     	;# 
    35  0005                     	;# 
    36  0006                     	;# 
    37  0007                     	;# 
    38  0008                     	;# 
    39  0009                     	;# 
    40  000A                     	;# 
    41  000B                     	;# 
    42  000C                     	;# 
    43  000E                     	;# 
    44  0011                     	;# 
    45  0012                     	;# 
    46  0015                     	;# 
    47  0016                     	;# 
    48  0016                     	;# 
    49  0017                     	;# 
    50  0018                     	;# 
    51  0019                     	;# 
    52  001A                     	;# 
    53  001B                     	;# 
    54  001C                     	;# 
    55  001E                     	;# 
    56  001F                     	;# 
    57  008C                     	;# 
    58  008E                     	;# 
    59  0091                     	;# 
    60  0092                     	;# 
    61  0095                     	;# 
    62  0096                     	;# 
    63  0097                     	;# 
    64  0098                     	;# 
    65  0099                     	;# 
    66  009A                     	;# 
    67  009B                     	;# 
    68  009B                     	;# 
    69  009C                     	;# 
    70  009D                     	;# 
    71  009E                     	;# 
    72  010C                     	;# 
    73  010E                     	;# 
    74  0111                     	;# 
    75  0112                     	;# 
    76  0113                     	;# 
    77  0114                     	;# 
    78  0115                     	;# 
    79  0116                     	;# 
    80  0117                     	;# 
    81  0118                     	;# 
    82  0119                     	;# 
    83  011A                     	;# 
    84  011B                     	;# 
    85  011D                     	;# 
    86  011D                     	;# 
    87  018C                     	;# 
    88  018E                     	;# 
    89  0191                     	;# 
    90  0191                     	;# 
    91  0192                     	;# 
    92  0193                     	;# 
    93  0193                     	;# 
    94  0193                     	;# 
    95  0194                     	;# 
    96  0195                     	;# 
    97  0196                     	;# 
    98  0199                     	;# 
    99  019A                     	;# 
   100  019B                     	;# 
   101  019B                     	;# 
   102  019B                     	;# 
   103  019B                     	;# 
   104  019C                     	;# 
   105  019C                     	;# 
   106  019D                     	;# 
   107  019E                     	;# 
   108  019F                     	;# 
   109  020C                     	;# 
   110  020E                     	;# 
   111  0211                     	;# 
   112  0211                     	;# 
   113  0212                     	;# 
   114  0212                     	;# 
   115  0213                     	;# 
   116  0213                     	;# 
   117  0214                     	;# 
   118  0214                     	;# 
   119  0215                     	;# 
   120  0215                     	;# 
   121  0215                     	;# 
   122  0216                     	;# 
   123  0216                     	;# 
   124  0217                     	;# 
   125  0217                     	;# 
   126  0291                     	;# 
   127  0291                     	;# 
   128  0292                     	;# 
   129  0293                     	;# 
   130  0294                     	;# 
   131  0295                     	;# 
   132  0295                     	;# 
   133  0296                     	;# 
   134  0391                     	;# 
   135  0392                     	;# 
   136  0393                     	;# 
   137  039A                     	;# 
   138  039C                     	;# 
   139  039D                     	;# 
   140  039E                     	;# 
   141  039F                     	;# 
   142  0FE4                     	;# 
   143  0FE5                     	;# 
   144  0FE6                     	;# 
   145  0FE7                     	;# 
   146  0FE8                     	;# 
   147  0FE9                     	;# 
   148  0FEA                     	;# 
   149  0FEB                     	;# 
   150  0FED                     	;# 
   151  0FEE                     	;# 
   152  0FEF                     	;# 
   153  0000                     	;# 
   154  0001                     	;# 
   155  0002                     	;# 
   156  0003                     	;# 
   157  0004                     	;# 
   158  0005                     	;# 
   159  0006                     	;# 
   160  0007                     	;# 
   161  0008                     	;# 
   162  0009                     	;# 
   163  000A                     	;# 
   164  000B                     	;# 
   165  000C                     	;# 
   166  000E                     	;# 
   167  0011                     	;# 
   168  0012                     	;# 
   169  0015                     	;# 
   170  0016                     	;# 
   171  0016                     	;# 
   172  0017                     	;# 
   173  0018                     	;# 
   174  0019                     	;# 
   175  001A                     	;# 
   176  001B                     	;# 
   177  001C                     	;# 
   178  001E                     	;# 
   179  001F                     	;# 
   180  008C                     	;# 
   181  008E                     	;# 
   182  0091                     	;# 
   183  0092                     	;# 
   184  0095                     	;# 
   185  0096                     	;# 
   186  0097                     	;# 
   187  0098                     	;# 
   188  0099                     	;# 
   189  009A                     	;# 
   190  009B                     	;# 
   191  009B                     	;# 
   192  009C                     	;# 
   193  009D                     	;# 
   194  009E                     	;# 
   195  010C                     	;# 
   196  010E                     	;# 
   197  0111                     	;# 
   198  0112                     	;# 
   199  0113                     	;# 
   200  0114                     	;# 
   201  0115                     	;# 
   202  0116                     	;# 
   203  0117                     	;# 
   204  0118                     	;# 
   205  0119                     	;# 
   206  011A                     	;# 
   207  011B                     	;# 
   208  011D                     	;# 
   209  011D                     	;# 
   210  018C                     	;# 
   211  018E                     	;# 
   212  0191                     	;# 
   213  0191                     	;# 
   214  0192                     	;# 
   215  0193                     	;# 
   216  0193                     	;# 
   217  0193                     	;# 
   218  0194                     	;# 
   219  0195                     	;# 
   220  0196                     	;# 
   221  0199                     	;# 
   222  019A                     	;# 
   223  019B                     	;# 
   224  019B                     	;# 
   225  019B                     	;# 
   226  019B                     	;# 
   227  019C                     	;# 
   228  019C                     	;# 
   229  019D                     	;# 
   230  019E                     	;# 
   231  019F                     	;# 
   232  020C                     	;# 
   233  020E                     	;# 
   234  0211                     	;# 
   235  0211                     	;# 
   236  0212                     	;# 
   237  0212                     	;# 
   238  0213                     	;# 
   239  0213                     	;# 
   240  0214                     	;# 
   241  0214                     	;# 
   242  0215                     	;# 
   243  0215                     	;# 
   244  0215                     	;# 
   245  0216                     	;# 
   246  0216                     	;# 
   247  0217                     	;# 
   248  0217                     	;# 
   249  0291                     	;# 
   250  0291                     	;# 
   251  0292                     	;# 
   252  0293                     	;# 
   253  0294                     	;# 
   254  0295                     	;# 
   255  0295                     	;# 
   256  0296                     	;# 
   257  0391                     	;# 
   258  0392                     	;# 
   259  0393                     	;# 
   260  039A                     	;# 
   261  039C                     	;# 
   262  039D                     	;# 
   263  039E                     	;# 
   264  039F                     	;# 
   265  0FE4                     	;# 
   266  0FE5                     	;# 
   267  0FE6                     	;# 
   268  0FE7                     	;# 
   269  0FE8                     	;# 
   270  0FE9                     	;# 
   271  0FEA                     	;# 
   272  0FEB                     	;# 
   273  0FED                     	;# 
   274  0FEE                     	;# 
   275  0FEF                     	;# 
   276  0000                     	;# 
   277  0001                     	;# 
   278  0002                     	;# 
   279  0003                     	;# 
   280  0004                     	;# 
   281  0005                     	;# 
   282  0006                     	;# 
   283  0007                     	;# 
   284  0008                     	;# 
   285  0009                     	;# 
   286  000A                     	;# 
   287  000B                     	;# 
   288  000C                     	;# 
   289  000E                     	;# 
   290  0011                     	;# 
   291  0012                     	;# 
   292  0015                     	;# 
   293  0016                     	;# 
   294  0016                     	;# 
   295  0017                     	;# 
   296  0018                     	;# 
   297  0019                     	;# 
   298  001A                     	;# 
   299  001B                     	;# 
   300  001C                     	;# 
   301  001E                     	;# 
   302  001F                     	;# 
   303  008C                     	;# 
   304  008E                     	;# 
   305  0091                     	;# 
   306  0092                     	;# 
   307  0095                     	;# 
   308  0096                     	;# 
   309  0097                     	;# 
   310  0098                     	;# 
   311  0099                     	;# 
   312  009A                     	;# 
   313  009B                     	;# 
   314  009B                     	;# 
   315  009C                     	;# 
   316  009D                     	;# 
   317  009E                     	;# 
   318  010C                     	;# 
   319  010E                     	;# 
   320  0111                     	;# 
   321  0112                     	;# 
   322  0113                     	;# 
   323  0114                     	;# 
   324  0115                     	;# 
   325  0116                     	;# 
   326  0117                     	;# 
   327  0118                     	;# 
   328  0119                     	;# 
   329  011A                     	;# 
   330  011B                     	;# 
   331  011D                     	;# 
   332  011D                     	;# 
   333  018C                     	;# 
   334  018E                     	;# 
   335  0191                     	;# 
   336  0191                     	;# 
   337  0192                     	;# 
   338  0193                     	;# 
   339  0193                     	;# 
   340  0193                     	;# 
   341  0194                     	;# 
   342  0195                     	;# 
   343  0196                     	;# 
   344  0199                     	;# 
   345  019A                     	;# 
   346  019B                     	;# 
   347  019B                     	;# 
   348  019B                     	;# 
   349  019B                     	;# 
   350  019C                     	;# 
   351  019C                     	;# 
   352  019D                     	;# 
   353  019E                     	;# 
   354  019F                     	;# 
   355  020C                     	;# 
   356  020E                     	;# 
   357  0211                     	;# 
   358  0211                     	;# 
   359  0212                     	;# 
   360  0212                     	;# 
   361  0213                     	;# 
   362  0213                     	;# 
   363  0214                     	;# 
   364  0214                     	;# 
   365  0215                     	;# 
   366  0215                     	;# 
   367  0215                     	;# 
   368  0216                     	;# 
   369  0216                     	;# 
   370  0217                     	;# 
   371  0217                     	;# 
   372  0291                     	;# 
   373  0291                     	;# 
   374  0292                     	;# 
   375  0293                     	;# 
   376  0294                     	;# 
   377  0295                     	;# 
   378  0295                     	;# 
   379  0296                     	;# 
   380  0391                     	;# 
   381  0392                     	;# 
   382  0393                     	;# 
   383  039A                     	;# 
   384  039C                     	;# 
   385  039D                     	;# 
   386  039E                     	;# 
   387  039F                     	;# 
   388  0FE4                     	;# 
   389  0FE5                     	;# 
   390  0FE6                     	;# 
   391  0FE7                     	;# 
   392  0FE8                     	;# 
   393  0FE9                     	;# 
   394  0FEA                     	;# 
   395  0FEB                     	;# 
   396  0FED                     	;# 
   397  0FEE                     	;# 
   398  0FEF                     	;# 
   399  0000                     	;# 
   400  0001                     	;# 
   401  0002                     	;# 
   402  0003                     	;# 
   403  0004                     	;# 
   404  0005                     	;# 
   405  0006                     	;# 
   406  0007                     	;# 
   407  0008                     	;# 
   408  0009                     	;# 
   409  000A                     	;# 
   410  000B                     	;# 
   411  000C                     	;# 
   412  000E                     	;# 
   413  0011                     	;# 
   414  0012                     	;# 
   415  0015                     	;# 
   416  0016                     	;# 
   417  0016                     	;# 
   418  0017                     	;# 
   419  0018                     	;# 
   420  0019                     	;# 
   421  001A                     	;# 
   422  001B                     	;# 
   423  001C                     	;# 
   424  001E                     	;# 
   425  001F                     	;# 
   426  008C                     	;# 
   427  008E                     	;# 
   428  0091                     	;# 
   429  0092                     	;# 
   430  0095                     	;# 
   431  0096                     	;# 
   432  0097                     	;# 
   433  0098                     	;# 
   434  0099                     	;# 
   435  009A                     	;# 
   436  009B                     	;# 
   437  009B                     	;# 
   438  009C                     	;# 
   439  009D                     	;# 
   440  009E                     	;# 
   441  010C                     	;# 
   442  010E                     	;# 
   443  0111                     	;# 
   444  0112                     	;# 
   445  0113                     	;# 
   446  0114                     	;# 
   447  0115                     	;# 
   448  0116                     	;# 
   449  0117                     	;# 
   450  0118                     	;# 
   451  0119                     	;# 
   452  011A                     	;# 
   453  011B                     	;# 
   454  011D                     	;# 
   455  011D                     	;# 
   456  018C                     	;# 
   457  018E                     	;# 
   458  0191                     	;# 
   459  0191                     	;# 
   460  0192                     	;# 
   461  0193                     	;# 
   462  0193                     	;# 
   463  0193                     	;# 
   464  0194                     	;# 
   465  0195                     	;# 
   466  0196                     	;# 
   467  0199                     	;# 
   468  019A                     	;# 
   469  019B                     	;# 
   470  019B                     	;# 
   471  019B                     	;# 
   472  019B                     	;# 
   473  019C                     	;# 
   474  019C                     	;# 
   475  019D                     	;# 
   476  019E                     	;# 
   477  019F                     	;# 
   478  020C                     	;# 
   479  020E                     	;# 
   480  0211                     	;# 
   481  0211                     	;# 
   482  0212                     	;# 
   483  0212                     	;# 
   484  0213                     	;# 
   485  0213                     	;# 
   486  0214                     	;# 
   487  0214                     	;# 
   488  0215                     	;# 
   489  0215                     	;# 
   490  0215                     	;# 
   491  0216                     	;# 
   492  0216                     	;# 
   493  0217                     	;# 
   494  0217                     	;# 
   495  0291                     	;# 
   496  0291                     	;# 
   497  0292                     	;# 
   498  0293                     	;# 
   499  0294                     	;# 
   500  0295                     	;# 
   501  0295                     	;# 
   502  0296                     	;# 
   503  0391                     	;# 
   504  0392                     	;# 
   505  0393                     	;# 
   506  039A                     	;# 
   507  039C                     	;# 
   508  039D                     	;# 
   509  039E                     	;# 
   510  039F                     	;# 
   511  0FE4                     	;# 
   512  0FE5                     	;# 
   513  0FE6                     	;# 
   514  0FE7                     	;# 
   515  0FE8                     	;# 
   516  0FE9                     	;# 
   517  0FEA                     	;# 
   518  0FEB                     	;# 
   519  0FED                     	;# 
   520  0FEE                     	;# 
   521  0FEF                     	;# 
   522  0000                     	;# 
   523  0001                     	;# 
   524  0002                     	;# 
   525  0003                     	;# 
   526  0004                     	;# 
   527  0005                     	;# 
   528  0006                     	;# 
   529  0007                     	;# 
   530  0008                     	;# 
   531  0009                     	;# 
   532  000A                     	;# 
   533  000B                     	;# 
   534  000C                     	;# 
   535  000E                     	;# 
   536  0011                     	;# 
   537  0012                     	;# 
   538  0015                     	;# 
   539  0016                     	;# 
   540  0016                     	;# 
   541  0017                     	;# 
   542  0018                     	;# 
   543  0019                     	;# 
   544  001A                     	;# 
   545  001B                     	;# 
   546  001C                     	;# 
   547  001E                     	;# 
   548  001F                     	;# 
   549  008C                     	;# 
   550  008E                     	;# 
   551  0091                     	;# 
   552  0092                     	;# 
   553  0095                     	;# 
   554  0096                     	;# 
   555  0097                     	;# 
   556  0098                     	;# 
   557  0099                     	;# 
   558  009A                     	;# 
   559  009B                     	;# 
   560  009B                     	;# 
   561  009C                     	;# 
   562  009D                     	;# 
   563  009E                     	;# 
   564  010C                     	;# 
   565  010E                     	;# 
   566  0111                     	;# 
   567  0112                     	;# 
   568  0113                     	;# 
   569  0114                     	;# 
   570  0115                     	;# 
   571  0116                     	;# 
   572  0117                     	;# 
   573  0118                     	;# 
   574  0119                     	;# 
   575  011A                     	;# 
   576  011B                     	;# 
   577  011D                     	;# 
   578  011D                     	;# 
   579  018C                     	;# 
   580  018E                     	;# 
   581  0191                     	;# 
   582  0191                     	;# 
   583  0192                     	;# 
   584  0193                     	;# 
   585  0193                     	;# 
   586  0193                     	;# 
   587  0194                     	;# 
   588  0195                     	;# 
   589  0196                     	;# 
   590  0199                     	;# 
   591  019A                     	;# 
   592  019B                     	;# 
   593  019B                     	;# 
   594  019B                     	;# 
   595  019B                     	;# 
   596  019C                     	;# 
   597  019C                     	;# 
   598  019D                     	;# 
   599  019E                     	;# 
   600  019F                     	;# 
   601  020C                     	;# 
   602  020E                     	;# 
   603  0211                     	;# 
   604  0211                     	;# 
   605  0212                     	;# 
   606  0212                     	;# 
   607  0213                     	;# 
   608  0213                     	;# 
   609  0214                     	;# 
   610  0214                     	;# 
   611  0215                     	;# 
   612  0215                     	;# 
   613  0215                     	;# 
   614  0216                     	;# 
   615  0216                     	;# 
   616  0217                     	;# 
   617  0217                     	;# 
   618  0291                     	;# 
   619  0291                     	;# 
   620  0292                     	;# 
   621  0293                     	;# 
   622  0294                     	;# 
   623  0295                     	;# 
   624  0295                     	;# 
   625  0296                     	;# 
   626  0391                     	;# 
   627  0392                     	;# 
   628  0393                     	;# 
   629  039A                     	;# 
   630  039C                     	;# 
   631  039D                     	;# 
   632  039E                     	;# 
   633  039F                     	;# 
   634  0FE4                     	;# 
   635  0FE5                     	;# 
   636  0FE6                     	;# 
   637  0FE7                     	;# 
   638  0FE8                     	;# 
   639  0FE9                     	;# 
   640  0FEA                     	;# 
   641  0FEB                     	;# 
   642  0FED                     	;# 
   643  0FEE                     	;# 
   644  0FEF                     	;# 
   645  0000                     	;# 
   646  0001                     	;# 
   647  0002                     	;# 
   648  0003                     	;# 
   649  0004                     	;# 
   650  0005                     	;# 
   651  0006                     	;# 
   652  0007                     	;# 
   653  0008                     	;# 
   654  0009                     	;# 
   655  000A                     	;# 
   656  000B                     	;# 
   657  000C                     	;# 
   658  000E                     	;# 
   659  0011                     	;# 
   660  0012                     	;# 
   661  0015                     	;# 
   662  0016                     	;# 
   663  0016                     	;# 
   664  0017                     	;# 
   665  0018                     	;# 
   666  0019                     	;# 
   667  001A                     	;# 
   668  001B                     	;# 
   669  001C                     	;# 
   670  001E                     	;# 
   671  001F                     	;# 
   672  008C                     	;# 
   673  008E                     	;# 
   674  0091                     	;# 
   675  0092                     	;# 
   676  0095                     	;# 
   677  0096                     	;# 
   678  0097                     	;# 
   679  0098                     	;# 
   680  0099                     	;# 
   681  009A                     	;# 
   682  009B                     	;# 
   683  009B                     	;# 
   684  009C                     	;# 
   685  009D                     	;# 
   686  009E                     	;# 
   687  010C                     	;# 
   688  010E                     	;# 
   689  0111                     	;# 
   690  0112                     	;# 
   691  0113                     	;# 
   692  0114                     	;# 
   693  0115                     	;# 
   694  0116                     	;# 
   695  0117                     	;# 
   696  0118                     	;# 
   697  0119                     	;# 
   698  011A                     	;# 
   699  011B                     	;# 
   700  011D                     	;# 
   701  011D                     	;# 
   702  018C                     	;# 
   703  018E                     	;# 
   704  0191                     	;# 
   705  0191                     	;# 
   706  0192                     	;# 
   707  0193                     	;# 
   708  0193                     	;# 
   709  0193                     	;# 
   710  0194                     	;# 
   711  0195                     	;# 
   712  0196                     	;# 
   713  0199                     	;# 
   714  019A                     	;# 
   715  019B                     	;# 
   716  019B                     	;# 
   717  019B                     	;# 
   718  019B                     	;# 
   719  019C                     	;# 
   720  019C                     	;# 
   721  019D                     	;# 
   722  019E                     	;# 
   723  019F                     	;# 
   724  020C                     	;# 
   725  020E                     	;# 
   726  0211                     	;# 
   727  0211                     	;# 
   728  0212                     	;# 
   729  0212                     	;# 
   730  0213                     	;# 
   731  0213                     	;# 
   732  0214                     	;# 
   733  0214                     	;# 
   734  0215                     	;# 
   735  0215                     	;# 
   736  0215                     	;# 
   737  0216                     	;# 
   738  0216                     	;# 
   739  0217                     	;# 
   740  0217                     	;# 
   741  0291                     	;# 
   742  0291                     	;# 
   743  0292                     	;# 
   744  0293                     	;# 
   745  0294                     	;# 
   746  0295                     	;# 
   747  0295                     	;# 
   748  0296                     	;# 
   749  0391                     	;# 
   750  0392                     	;# 
   751  0393                     	;# 
   752  039A                     	;# 
   753  039C                     	;# 
   754  039D                     	;# 
   755  039E                     	;# 
   756  039F                     	;# 
   757  0FE4                     	;# 
   758  0FE5                     	;# 
   759  0FE6                     	;# 
   760  0FE7                     	;# 
   761  0FE8                     	;# 
   762  0FE9                     	;# 
   763  0FEA                     	;# 
   764  0FEB                     	;# 
   765  0FED                     	;# 
   766  0FEE                     	;# 
   767  0FEF                     	;# 
   768  0000                     	;# 
   769  0001                     	;# 
   770  0002                     	;# 
   771  0003                     	;# 
   772  0004                     	;# 
   773  0005                     	;# 
   774  0006                     	;# 
   775  0007                     	;# 
   776  0008                     	;# 
   777  0009                     	;# 
   778  000A                     	;# 
   779  000B                     	;# 
   780  000C                     	;# 
   781  000E                     	;# 
   782  0011                     	;# 
   783  0012                     	;# 
   784  0015                     	;# 
   785  0016                     	;# 
   786  0016                     	;# 
   787  0017                     	;# 
   788  0018                     	;# 
   789  0019                     	;# 
   790  001A                     	;# 
   791  001B                     	;# 
   792  001C                     	;# 
   793  001E                     	;# 
   794  001F                     	;# 
   795  008C                     	;# 
   796  008E                     	;# 
   797  0091                     	;# 
   798  0092                     	;# 
   799  0095                     	;# 
   800  0096                     	;# 
   801  0097                     	;# 
   802  0098                     	;# 
   803  0099                     	;# 
   804  009A                     	;# 
   805  009B                     	;# 
   806  009B                     	;# 
   807  009C                     	;# 
   808  009D                     	;# 
   809  009E                     	;# 
   810  010C                     	;# 
   811  010E                     	;# 
   812  0111                     	;# 
   813  0112                     	;# 
   814  0113                     	;# 
   815  0114                     	;# 
   816  0115                     	;# 
   817  0116                     	;# 
   818  0117                     	;# 
   819  0118                     	;# 
   820  0119                     	;# 
   821  011A                     	;# 
   822  011B                     	;# 
   823  011D                     	;# 
   824  011D                     	;# 
   825  018C                     	;# 
   826  018E                     	;# 
   827  0191                     	;# 
   828  0191                     	;# 
   829  0192                     	;# 
   830  0193                     	;# 
   831  0193                     	;# 
   832  0193                     	;# 
   833  0194                     	;# 
   834  0195                     	;# 
   835  0196                     	;# 
   836  0199                     	;# 
   837  019A                     	;# 
   838  019B                     	;# 
   839  019B                     	;# 
   840  019B                     	;# 
   841  019B                     	;# 
   842  019C                     	;# 
   843  019C                     	;# 
   844  019D                     	;# 
   845  019E                     	;# 
   846  019F                     	;# 
   847  020C                     	;# 
   848  020E                     	;# 
   849  0211                     	;# 
   850  0211                     	;# 
   851  0212                     	;# 
   852  0212                     	;# 
   853  0213                     	;# 
   854  0213                     	;# 
   855  0214                     	;# 
   856  0214                     	;# 
   857  0215                     	;# 
   858  0215                     	;# 
   859  0215                     	;# 
   860  0216                     	;# 
   861  0216                     	;# 
   862  0217                     	;# 
   863  0217                     	;# 
   864  0291                     	;# 
   865  0291                     	;# 
   866  0292                     	;# 
   867  0293                     	;# 
   868  0294                     	;# 
   869  0295                     	;# 
   870  0295                     	;# 
   871  0296                     	;# 
   872  0391                     	;# 
   873  0392                     	;# 
   874  0393                     	;# 
   875  039A                     	;# 
   876  039C                     	;# 
   877  039D                     	;# 
   878  039E                     	;# 
   879  039F                     	;# 
   880  0FE4                     	;# 
   881  0FE5                     	;# 
   882  0FE6                     	;# 
   883  0FE7                     	;# 
   884  0FE8                     	;# 
   885  0FE9                     	;# 
   886  0FEA                     	;# 
   887  0FEB                     	;# 
   888  0FED                     	;# 
   889  0FEE                     	;# 
   890  0FEF                     	;# 
   891                           
   892                           	psect	stringtext
   893  013C                     __pstringtext:	
   894  013C                     _one_length:	
   895  013C  34E8               	retlw	232
   896  013D  3403               	retlw	3
   897  013E  34B0               	retlw	176
   898  013F  3404               	retlw	4
   899  0140                     __end_of_one_length:	
   900  0140                     _start_pulse:	
   901  0140  3464               	retlw	100
   902  0141  3419               	retlw	25
   903  0142  3458               	retlw	88
   904  0143  341B               	retlw	27
   905  0144                     __end_of_start_pulse:	
   906  0144                     _zero_length:	
   907  0144  3412               	retlw	18
   908  0145  3402               	retlw	2
   909  0146  344E               	retlw	78
   910  0147  3402               	retlw	2
   911  0148                     __end_of_zero_length:	
   912                           
   913                           	psect	nvBANK0
   914  002D                     __pnvBANK0:	
   915  002D                     _timer1ReloadVal:	
   916  002D                     	ds	2
   917  000B                     _INTCONbits	set	11
   918  0011                     _PIR1bits	set	17
   919  0018                     _T1CON	set	24
   920  0018                     _T1CONbits	set	24
   921  0019                     _T1GCON	set	25
   922  0017                     _TMR1H	set	23
   923  0016                     _TMR1L	set	22
   924  0065                     _RA5	set	101
   925  0070                     _RC0	set	112
   926  0095                     _OPTION_REGbits	set	149
   927  0099                     _OSCCON	set	153
   928  009A                     _OSCSTAT	set	154
   929  0098                     _OSCTUNE	set	152
   930  0091                     _PIE1bits	set	145
   931  008C                     _TRISA	set	140
   932  008E                     _TRISC	set	142
   933  011D                     _APFCON	set	285
   934  010C                     _LATA	set	268
   935  010E                     _LATC	set	270
   936  018C                     _ANSELA	set	396
   937  018E                     _ANSELC	set	398
   938  019F                     _BAUDCON	set	415
   939  019D                     _RCSTA	set	413
   940  019C                     _SPBRGH	set	412
   941  019B                     _SPBRGL	set	411
   942  019E                     _TXSTA	set	414
   943  020C                     _WPUA	set	524
   944  020E                     _WPUC	set	526
   945  1C9A                     _IOCAF2	set	7322
   946  1C92                     _IOCAN2	set	7314
   947                           
   948                           ; #config settings
   949  0000                     
   950                           	psect	cinit
   951  0016                     start_initialization:	
   952  0016                     __initialization:	
   953                           
   954                           ; Clear objects allocated to COMMON
   955  0016  01FB               	clrf	__pbssCOMMON& (0+127)
   956  0017  01FC               	clrf	(__pbssCOMMON+1)& (0+127)
   957  0018  01FD               	clrf	(__pbssCOMMON+2)& (0+127)
   958                           
   959                           ; Clear objects allocated to BANK0
   960  0019  01A0               	clrf	__pbssBANK0& (0+127)
   961  001A  01A1               	clrf	(__pbssBANK0+1)& (0+127)
   962  001B  01A2               	clrf	(__pbssBANK0+2)& (0+127)
   963  001C  01A3               	clrf	(__pbssBANK0+3)& (0+127)
   964  001D  01A4               	clrf	(__pbssBANK0+4)& (0+127)
   965  001E  01A5               	clrf	(__pbssBANK0+5)& (0+127)
   966  001F  01A6               	clrf	(__pbssBANK0+6)& (0+127)
   967  0020                     end_of_initialization:	
   968                           ;End of C runtime variable initialization code
   969                           
   970  0020                     __end_of__initialization:	
   971  0020  107E               	bcf	126,0	;clear compiler interrupt flag (level 1)
   972  0021  0020               	movlb	0
   973  0022  28FC               	ljmp	_main	;jump to C main() function
   974                           
   975                           	psect	bssCOMMON
   976  007B                     __pbssCOMMON:	
   977  007B                     TMR1_ISR@CountCallBack:	
   978  007B                     	ds	2
   979  007D                     _bit_number:	
   980  007D                     	ds	1
   981                           
   982                           	psect	bssBANK0
   983  0020                     __pbssBANK0:	
   984  0020                     _data:	
   985  0020                     	ds	4
   986  0024                     _prev_timer_value:	
   987  0024                     	ds	2
   988  0026                     _buzzer_enable:	
   989  0026                     	ds	1
   990                           
   991                           	psect	cstackCOMMON
   992  0070                     __pcstackCOMMON:	
   993  0070                     ?_TMR1_WriteTimer:	
   994  0070                     ?_OSCILLATOR_Initialize:	
   995                           ; 1 bytes @ 0x0
   996                           
   997  0070                     ?_EUSART_Initialize:	
   998                           ; 1 bytes @ 0x0
   999                           
  1000  0070                     ?_TMR1_Initialize:	
  1001                           ; 1 bytes @ 0x0
  1002                           
  1003  0070                     ?_TMR1_ISR:	
  1004                           ; 1 bytes @ 0x0
  1005                           
  1006  0070                     ??_TMR1_ISR:	
  1007                           ; 1 bytes @ 0x0
  1008                           
  1009  0070                     ?_TMR1_StartTimer:	
  1010                           ; 1 bytes @ 0x0
  1011                           
  1012  0070                     ?_TMR1_CallBack:	
  1013                           ; 1 bytes @ 0x0
  1014                           
  1015  0070                     ??_TMR1_CallBack:	
  1016                           ; 1 bytes @ 0x0
  1017                           
  1018  0070                     ?_PIN_MANAGER_Initialize:	
  1019                           ; 1 bytes @ 0x0
  1020                           
  1021  0070                     ?_PIN_MANAGER_IOC:	
  1022                           ; 1 bytes @ 0x0
  1023                           
  1024  0070                     ?_SYSTEM_Initialize:	
  1025                           ; 1 bytes @ 0x0
  1026                           
  1027  0070                     ?_INTERRUPT_InterruptManager:	
  1028                           ; 1 bytes @ 0x0
  1029                           
  1030  0070                     ?_TMR1_StopTimer:	
  1031                           ; 1 bytes @ 0x0
  1032                           
  1033  0070                     ?_main:	
  1034                           ; 1 bytes @ 0x0
  1035                           
  1036  0070                     ?i1_TMR1_StartTimer:	
  1037                           ; 1 bytes @ 0x0
  1038                           
  1039  0070                     ??i1_TMR1_StartTimer:	
  1040                           ; 1 bytes @ 0x0
  1041                           
  1042  0070                     ?i1_TMR1_StopTimer:	
  1043                           ; 1 bytes @ 0x0
  1044                           
  1045  0070                     ??i1_TMR1_StopTimer:	
  1046                           ; 1 bytes @ 0x0
  1047                           
  1048  0070                     ?i1_TMR1_ReadTimer:	
  1049                           ; 1 bytes @ 0x0
  1050                           
  1051  0070                     TMR1_WriteTimer@timerVal:	
  1052                           ; 2 bytes @ 0x0
  1053                           
  1054                           
  1055                           ; 2 bytes @ 0x0
  1056  0070                     	ds	2
  1057  0072                     ??_TMR1_WriteTimer:	
  1058  0072                     ??i1_TMR1_ReadTimer:	
  1059                           ; 1 bytes @ 0x2
  1060                           
  1061  0072                     i1TMR1_ReadTimer@readVal:	
  1062                           ; 1 bytes @ 0x2
  1063                           
  1064                           
  1065                           ; 2 bytes @ 0x2
  1066  0072                     	ds	2
  1067  0074                     ??_PIN_MANAGER_IOC:	
  1068                           
  1069                           ; 1 bytes @ 0x4
  1070  0074                     	ds	2
  1071  0076                     PIN_MANAGER_IOC@index:	
  1072                           
  1073                           ; 1 bytes @ 0x6
  1074  0076                     	ds	1
  1075  0077                     PIN_MANAGER_IOC@time:	
  1076                           
  1077                           ; 2 bytes @ 0x7
  1078  0077                     	ds	2
  1079  0079                     PIN_MANAGER_IOC@delta:	
  1080                           
  1081                           ; 2 bytes @ 0x9
  1082  0079                     	ds	2
  1083  007B                     ??_INTERRUPT_InterruptManager:	
  1084                           
  1085                           	psect	cstackBANK0
  1086  0027                     __pcstackBANK0:	
  1087                           ; 1 bytes @ 0xB
  1088                           
  1089  0027                     ??_OSCILLATOR_Initialize:	
  1090  0027                     ??_EUSART_Initialize:	
  1091                           ; 1 bytes @ 0x0
  1092                           
  1093  0027                     ??_TMR1_Initialize:	
  1094                           ; 1 bytes @ 0x0
  1095                           
  1096  0027                     ??_TMR1_StartTimer:	
  1097                           ; 1 bytes @ 0x0
  1098                           
  1099  0027                     ??_PIN_MANAGER_Initialize:	
  1100                           ; 1 bytes @ 0x0
  1101                           
  1102  0027                     ??_SYSTEM_Initialize:	
  1103                           ; 1 bytes @ 0x0
  1104                           
  1105  0027                     ??_TMR1_StopTimer:	
  1106                           ; 1 bytes @ 0x0
  1107                           
  1108  0027                     ?_TMR1_ReadTimer:	
  1109                           ; 1 bytes @ 0x0
  1110                           
  1111                           
  1112                           ; 2 bytes @ 0x0
  1113  0027                     	ds	2
  1114  0029                     ??_TMR1_ReadTimer:	
  1115  0029                     TMR1_ReadTimer@readVal:	
  1116                           ; 1 bytes @ 0x2
  1117                           
  1118                           
  1119                           ; 2 bytes @ 0x2
  1120  0029                     	ds	2
  1121  002B                     ??_main:	
  1122                           
  1123                           ; 1 bytes @ 0x4
  1124  002B                     	ds	2
  1125                           
  1126                           	psect	maintext
  1127  00FC                     __pmaintext:	
  1128 ;;
  1129 ;;Main: autosize = 0, tempsize = 2, incstack = 0, save=0
  1130 ;;
  1131 ;; *************** function _main *****************
  1132 ;; Defined at:
  1133 ;;		line 52 in file "main.c"
  1134 ;; Parameters:    Size  Location     Type
  1135 ;;		None
  1136 ;; Auto vars:     Size  Location     Type
  1137 ;;		None
  1138 ;; Return value:  Size  Location     Type
  1139 ;;                  1    wreg      void 
  1140 ;; Registers used:
  1141 ;;		wreg, status,2, status,0, pclath, cstack
  1142 ;; Tracked objects:
  1143 ;;		On entry : B1F/0
  1144 ;;		On exit  : 1F/0
  1145 ;;		Unchanged: 0/0
  1146 ;; Data sizes:     COMMON   BANK0   BANK1
  1147 ;;      Params:         0       0       0
  1148 ;;      Locals:         0       0       0
  1149 ;;      Temps:          0       2       0
  1150 ;;      Totals:         0       2       0
  1151 ;;Total ram usage:        2 bytes
  1152 ;; Hardware stack levels required when called:    7
  1153 ;; This function calls:
  1154 ;;		_SYSTEM_Initialize
  1155 ;;		_TMR1_ReadTimer
  1156 ;; This function is called by:
  1157 ;;		Startup code after reset
  1158 ;; This function uses a non-reentrant model
  1159 ;;
  1160                           
  1161                           
  1162                           ;psect for function _main
  1163  00FC                     _main:	
  1164                           
  1165                           ;main.c: 54: SYSTEM_Initialize();
  1166                           
  1167                           ;incstack = 0
  1168                           ; Regs used in _main: [wreg+status,2+status,0+pclath+cstack]
  1169  00FC  2172               	fcall	_SYSTEM_Initialize
  1170                           
  1171                           ;main.c: 60: (INTCONbits.GIE = 1);
  1172  00FD  178B               	bsf	11,7	;volatile
  1173                           
  1174                           ;main.c: 63: (INTCONbits.PEIE = 1);
  1175  00FE  170B               	bsf	11,6	;volatile
  1176  00FF                     l1098:	
  1177                           
  1178                           ;main.c: 72: if(buzzer_enable)
  1179  00FF  0826               	movf	_buzzer_enable,w	;volatile
  1180  0100  1903               	btfsc	3,2
  1181  0101  28FF               	goto	l1098
  1182                           
  1183                           ;main.c: 73: {
  1184                           ;main.c: 74: RA5 = TMR1_ReadTimer() & 0x0040 ? 1 : 0;
  1185  0102  2148               	fcall	_TMR1_ReadTimer
  1186  0103  0827               	movf	?_TMR1_ReadTimer,w
  1187  0104  00AB               	movwf	??_main
  1188  0105  0828               	movf	?_TMR1_ReadTimer+1,w
  1189  0106  00AC               	movwf	??_main+1
  1190  0107  1F2B               	btfss	??_main,6
  1191  0108  290C               	goto	u450
  1192  0109  0020               	movlb	0	; select bank0
  1193  010A  168C               	bsf	12,5	;volatile
  1194  010B  28FF               	goto	l1098
  1195  010C                     u450:	
  1196  010C  0020               	movlb	0	; select bank0
  1197  010D  128C               	bcf	12,5	;volatile
  1198  010E  28FF               	goto	l1098
  1199  010F                     __end_of_main:	
  1200                           
  1201                           	psect	text1
  1202  0148                     __ptext1:	
  1203 ;; *************** function _TMR1_ReadTimer *****************
  1204 ;; Defined at:
  1205 ;;		line 102 in file "mcc_generated_files/tmr1.c"
  1206 ;; Parameters:    Size  Location     Type
  1207 ;;		None
  1208 ;; Auto vars:     Size  Location     Type
  1209 ;;  readVal         2    2[BANK0 ] unsigned int 
  1210 ;; Return value:  Size  Location     Type
  1211 ;;                  2    0[BANK0 ] unsigned int 
  1212 ;; Registers used:
  1213 ;;		wreg, status,2, status,0, pclath, cstack
  1214 ;; Tracked objects:
  1215 ;;		On entry : 1F/0
  1216 ;;		On exit  : 1F/0
  1217 ;;		Unchanged: 0/0
  1218 ;; Data sizes:     COMMON   BANK0   BANK1
  1219 ;;      Params:         0       2       0
  1220 ;;      Locals:         0       2       0
  1221 ;;      Temps:          0       0       0
  1222 ;;      Totals:         0       4       0
  1223 ;;Total ram usage:        4 bytes
  1224 ;; Hardware stack levels used:    1
  1225 ;; Hardware stack levels required when called:    5
  1226 ;; This function calls:
  1227 ;;		_TMR1_StartTimer
  1228 ;;		_TMR1_StopTimer
  1229 ;; This function is called by:
  1230 ;;		_main
  1231 ;; This function uses a non-reentrant model
  1232 ;;
  1233                           
  1234                           
  1235                           ;psect for function _TMR1_ReadTimer
  1236  0148                     _TMR1_ReadTimer:	
  1237                           
  1238                           ;tmr1.c: 103: uint16_t readVal;
  1239                           ;tmr1.c: 104: TMR1_StopTimer();
  1240                           
  1241                           ;incstack = 0
  1242                           ; Regs used in _TMR1_ReadTimer: [wreg+status,2+status,0+pclath+cstack]
  1243  0148  217C               	fcall	_TMR1_StopTimer
  1244                           
  1245                           ;tmr1.c: 105: readVal = (TMR1H << 8) | TMR1L;
  1246  0149  0817               	movf	23,w	;volatile
  1247  014A  00AA               	movwf	TMR1_ReadTimer@readVal+1
  1248  014B  01A9               	clrf	TMR1_ReadTimer@readVal
  1249  014C  0816               	movf	22,w	;volatile
  1250  014D  04A9               	iorwf	TMR1_ReadTimer@readVal,f
  1251                           
  1252                           ;tmr1.c: 106: TMR1_StartTimer();
  1253  014E  2176               	fcall	_TMR1_StartTimer
  1254                           
  1255                           ;tmr1.c: 107: return readVal;
  1256  014F  082A               	movf	TMR1_ReadTimer@readVal+1,w
  1257  0150  00A8               	movwf	?_TMR1_ReadTimer+1
  1258  0151  0829               	movf	TMR1_ReadTimer@readVal,w
  1259  0152  00A7               	movwf	?_TMR1_ReadTimer
  1260  0153  0008               	return
  1261  0154                     __end_of_TMR1_ReadTimer:	
  1262                           
  1263                           	psect	text2
  1264  017C                     __ptext2:	
  1265 ;; *************** function _TMR1_StopTimer *****************
  1266 ;; Defined at:
  1267 ;;		line 97 in file "mcc_generated_files/tmr1.c"
  1268 ;; Parameters:    Size  Location     Type
  1269 ;;		None
  1270 ;; Auto vars:     Size  Location     Type
  1271 ;;		None
  1272 ;; Return value:  Size  Location     Type
  1273 ;;                  1    wreg      void 
  1274 ;; Registers used:
  1275 ;;		None
  1276 ;; Tracked objects:
  1277 ;;		On entry : 1F/0
  1278 ;;		On exit  : 1F/0
  1279 ;;		Unchanged: 0/0
  1280 ;; Data sizes:     COMMON   BANK0   BANK1
  1281 ;;      Params:         0       0       0
  1282 ;;      Locals:         0       0       0
  1283 ;;      Temps:          0       0       0
  1284 ;;      Totals:         0       0       0
  1285 ;;Total ram usage:        0 bytes
  1286 ;; Hardware stack levels used:    1
  1287 ;; Hardware stack levels required when called:    4
  1288 ;; This function calls:
  1289 ;;		Nothing
  1290 ;; This function is called by:
  1291 ;;		_TMR1_ReadTimer
  1292 ;; This function uses a non-reentrant model
  1293 ;;
  1294                           
  1295                           
  1296                           ;psect for function _TMR1_StopTimer
  1297  017C                     _TMR1_StopTimer:	
  1298                           
  1299                           ;tmr1.c: 99: T1CONbits.TMR1ON = 0;
  1300                           
  1301                           ;incstack = 0
  1302                           ; Regs used in _TMR1_StopTimer: []
  1303  017C  1018               	bcf	24,0	;volatile
  1304  017D  0008               	return
  1305  017E                     __end_of_TMR1_StopTimer:	
  1306                           
  1307                           	psect	text3
  1308  0172                     __ptext3:	
  1309 ;; *************** function _SYSTEM_Initialize *****************
  1310 ;; Defined at:
  1311 ;;		line 70 in file "mcc_generated_files/mcc.c"
  1312 ;; Parameters:    Size  Location     Type
  1313 ;;		None
  1314 ;; Auto vars:     Size  Location     Type
  1315 ;;		None
  1316 ;; Return value:  Size  Location     Type
  1317 ;;                  1    wreg      void 
  1318 ;; Registers used:
  1319 ;;		wreg, status,2, status,0, pclath, cstack
  1320 ;; Tracked objects:
  1321 ;;		On entry : B1F/0
  1322 ;;		On exit  : 1F/0
  1323 ;;		Unchanged: 0/0
  1324 ;; Data sizes:     COMMON   BANK0   BANK1
  1325 ;;      Params:         0       0       0
  1326 ;;      Locals:         0       0       0
  1327 ;;      Temps:          0       0       0
  1328 ;;      Totals:         0       0       0
  1329 ;;Total ram usage:        0 bytes
  1330 ;; Hardware stack levels used:    1
  1331 ;; Hardware stack levels required when called:    6
  1332 ;; This function calls:
  1333 ;;		_EUSART_Initialize
  1334 ;;		_OSCILLATOR_Initialize
  1335 ;;		_PIN_MANAGER_Initialize
  1336 ;;		_TMR1_Initialize
  1337 ;; This function is called by:
  1338 ;;		_main
  1339 ;; This function uses a non-reentrant model
  1340 ;;
  1341                           
  1342                           
  1343                           ;psect for function _SYSTEM_Initialize
  1344  0172                     _SYSTEM_Initialize:	
  1345                           
  1346                           ;mcc.c: 71: OSCILLATOR_Initialize();
  1347                           
  1348                           ;incstack = 0
  1349                           ; Regs used in _SYSTEM_Initialize: [wreg+status,2+status,0+pclath+cstack]
  1350  0172  216C               	fcall	_OSCILLATOR_Initialize
  1351                           
  1352                           ;mcc.c: 72: PIN_MANAGER_Initialize();
  1353  0173  20E3               	fcall	_PIN_MANAGER_Initialize
  1354                           
  1355                           ;mcc.c: 73: EUSART_Initialize();
  1356  0174  2154               	fcall	_EUSART_Initialize
  1357                           
  1358                           ;mcc.c: 74: TMR1_Initialize();
  1359  0175  291F               	ljmp	l964
  1360  0176                     __end_of_SYSTEM_Initialize:	
  1361                           
  1362                           	psect	text4
  1363  011F                     __ptext4:	
  1364 ;; *************** function _TMR1_Initialize *****************
  1365 ;; Defined at:
  1366 ;;		line 64 in file "mcc_generated_files/tmr1.c"
  1367 ;; Parameters:    Size  Location     Type
  1368 ;;		None
  1369 ;; Auto vars:     Size  Location     Type
  1370 ;;		None
  1371 ;; Return value:  Size  Location     Type
  1372 ;;                  1    wreg      void 
  1373 ;; Registers used:
  1374 ;;		wreg, status,2, status,0, pclath, cstack
  1375 ;; Tracked objects:
  1376 ;;		On entry : B1F/3
  1377 ;;		On exit  : 1F/0
  1378 ;;		Unchanged: 0/0
  1379 ;; Data sizes:     COMMON   BANK0   BANK1
  1380 ;;      Params:         0       0       0
  1381 ;;      Locals:         0       0       0
  1382 ;;      Temps:          0       0       0
  1383 ;;      Totals:         0       0       0
  1384 ;;Total ram usage:        0 bytes
  1385 ;; Hardware stack levels used:    1
  1386 ;; Hardware stack levels required when called:    5
  1387 ;; This function calls:
  1388 ;;		_TMR1_StartTimer
  1389 ;; This function is called by:
  1390 ;;		_SYSTEM_Initialize
  1391 ;; This function uses a non-reentrant model
  1392 ;;
  1393                           
  1394                           
  1395                           ;psect for function _TMR1_Initialize
  1396  011F                     _TMR1_Initialize:	
  1397  011F                     l964:	
  1398                           ;incstack = 0
  1399                           ; Regs used in _TMR1_Initialize: [wreg+status,2+status,0+pclath+cstack]
  1400                           
  1401                           
  1402                           ;tmr1.c: 68: T1CON = 0x30;
  1403  011F  3030               	movlw	48
  1404  0120  0020               	movlb	0	; select bank0
  1405  0121  0098               	movwf	24	;volatile
  1406                           
  1407                           ;tmr1.c: 71: T1GCON = 0x00;
  1408  0122  0199               	clrf	25	;volatile
  1409                           
  1410                           ;tmr1.c: 74: TMR1H = 0x00;
  1411  0123  0197               	clrf	23	;volatile
  1412                           
  1413                           ;tmr1.c: 77: TMR1L = 0x00;
  1414  0124  0196               	clrf	22	;volatile
  1415                           
  1416                           ;tmr1.c: 80: timer1ReloadVal = (TMR1H << 8) | TMR1L;
  1417  0125  0817               	movf	23,w	;volatile
  1418  0126  00AE               	movwf	_timer1ReloadVal+1	;volatile
  1419  0127  01AD               	clrf	_timer1ReloadVal	;volatile
  1420  0128  0816               	movf	22,w	;volatile
  1421  0129  04AD               	iorwf	_timer1ReloadVal,f	;volatile
  1422                           
  1423                           ;tmr1.c: 83: PIR1bits.TMR1IF = 0;
  1424  012A  1011               	bcf	17,0	;volatile
  1425                           
  1426                           ;tmr1.c: 86: PIE1bits.TMR1IE = 1;
  1427  012B  0021               	movlb	1	; select bank1
  1428  012C  1411               	bsf	17,0	;volatile
  1429                           
  1430                           ;tmr1.c: 89: TMR1_StartTimer();
  1431  012D  2976               	ljmp	l916
  1432  012E                     __end_of_TMR1_Initialize:	
  1433                           
  1434                           	psect	text5
  1435  0176                     __ptext5:	
  1436 ;; *************** function _TMR1_StartTimer *****************
  1437 ;; Defined at:
  1438 ;;		line 92 in file "mcc_generated_files/tmr1.c"
  1439 ;; Parameters:    Size  Location     Type
  1440 ;;		None
  1441 ;; Auto vars:     Size  Location     Type
  1442 ;;		None
  1443 ;; Return value:  Size  Location     Type
  1444 ;;                  1    wreg      void 
  1445 ;; Registers used:
  1446 ;;		None
  1447 ;; Tracked objects:
  1448 ;;		On entry : 1E/0
  1449 ;;		On exit  : 1F/0
  1450 ;;		Unchanged: 0/0
  1451 ;; Data sizes:     COMMON   BANK0   BANK1
  1452 ;;      Params:         0       0       0
  1453 ;;      Locals:         0       0       0
  1454 ;;      Temps:          0       0       0
  1455 ;;      Totals:         0       0       0
  1456 ;;Total ram usage:        0 bytes
  1457 ;; Hardware stack levels used:    1
  1458 ;; Hardware stack levels required when called:    4
  1459 ;; This function calls:
  1460 ;;		Nothing
  1461 ;; This function is called by:
  1462 ;;		_TMR1_Initialize
  1463 ;;		_TMR1_ReadTimer
  1464 ;; This function uses a non-reentrant model
  1465 ;;
  1466                           
  1467                           
  1468                           ;psect for function _TMR1_StartTimer
  1469  0176                     _TMR1_StartTimer:	
  1470  0176                     l916:	
  1471                           ;incstack = 0
  1472                           ; Regs used in _TMR1_StartTimer: []
  1473                           
  1474                           
  1475                           ;tmr1.c: 94: T1CONbits.TMR1ON = 1;
  1476  0176  0020               	movlb	0	; select bank0
  1477  0177  1418               	bsf	24,0	;volatile
  1478  0178  0008               	return
  1479  0179                     __end_of_TMR1_StartTimer:	
  1480                           
  1481                           	psect	text6
  1482  00E3                     __ptext6:	
  1483 ;; *************** function _PIN_MANAGER_Initialize *****************
  1484 ;; Defined at:
  1485 ;;		line 52 in file "mcc_generated_files/pin_manager.c"
  1486 ;; Parameters:    Size  Location     Type
  1487 ;;		None
  1488 ;; Auto vars:     Size  Location     Type
  1489 ;;		None
  1490 ;; Return value:  Size  Location     Type
  1491 ;;                  1    wreg      void 
  1492 ;; Registers used:
  1493 ;;		wreg, status,2
  1494 ;; Tracked objects:
  1495 ;;		On entry : B1F/1
  1496 ;;		On exit  : B1F/7
  1497 ;;		Unchanged: B00/0
  1498 ;; Data sizes:     COMMON   BANK0   BANK1
  1499 ;;      Params:         0       0       0
  1500 ;;      Locals:         0       0       0
  1501 ;;      Temps:          0       0       0
  1502 ;;      Totals:         0       0       0
  1503 ;;Total ram usage:        0 bytes
  1504 ;; Hardware stack levels used:    1
  1505 ;; Hardware stack levels required when called:    4
  1506 ;; This function calls:
  1507 ;;		Nothing
  1508 ;; This function is called by:
  1509 ;;		_SYSTEM_Initialize
  1510 ;; This function uses a non-reentrant model
  1511 ;;
  1512                           
  1513                           
  1514                           ;psect for function _PIN_MANAGER_Initialize
  1515  00E3                     _PIN_MANAGER_Initialize:	
  1516                           
  1517                           ;pin_manager.c: 53: LATA = 0x00;
  1518                           
  1519                           ;incstack = 0
  1520                           ; Regs used in _PIN_MANAGER_Initialize: [wreg+status,2]
  1521  00E3  0022               	movlb	2	; select bank2
  1522  00E4  018C               	clrf	12	;volatile
  1523                           
  1524                           ;pin_manager.c: 54: TRISA = 0x0F;
  1525  00E5  300F               	movlw	15
  1526  00E6  0021               	movlb	1	; select bank1
  1527  00E7  008C               	movwf	12	;volatile
  1528                           
  1529                           ;pin_manager.c: 55: ANSELA = 0x00;
  1530  00E8  0023               	movlb	3	; select bank3
  1531  00E9  018C               	clrf	12	;volatile
  1532                           
  1533                           ;pin_manager.c: 56: WPUA = 0x00;
  1534  00EA  0024               	movlb	4	; select bank4
  1535  00EB  018C               	clrf	12	;volatile
  1536                           
  1537                           ;pin_manager.c: 58: LATC = 0x00;
  1538  00EC  0022               	movlb	2	; select bank2
  1539  00ED  018E               	clrf	14	;volatile
  1540                           
  1541                           ;pin_manager.c: 59: TRISC = 0x00;
  1542  00EE  0021               	movlb	1	; select bank1
  1543  00EF  018E               	clrf	14	;volatile
  1544                           
  1545                           ;pin_manager.c: 60: ANSELC = 0x00;
  1546  00F0  0023               	movlb	3	; select bank3
  1547  00F1  018E               	clrf	14	;volatile
  1548                           
  1549                           ;pin_manager.c: 61: WPUC = 0x00;
  1550  00F2  0024               	movlb	4	; select bank4
  1551  00F3  018E               	clrf	14	;volatile
  1552                           
  1553                           ;pin_manager.c: 63: OPTION_REGbits.nWPUEN = 0x01;
  1554  00F4  0021               	movlb	1	; select bank1
  1555  00F5  1795               	bsf	21,7	;volatile
  1556                           
  1557                           ;pin_manager.c: 65: APFCON = 0x00;
  1558  00F6  0022               	movlb	2	; select bank2
  1559  00F7  019D               	clrf	29	;volatile
  1560                           
  1561                           ;pin_manager.c: 68: IOCAN2 = 1;
  1562  00F8  0027               	movlb	7	; select bank7
  1563  00F9  1512               	bsf	18,2	;volatile
  1564                           
  1565                           ;pin_manager.c: 71: INTCONbits.IOCIE = 1;
  1566  00FA  158B               	bsf	11,3	;volatile
  1567  00FB  0008               	return
  1568  00FC                     __end_of_PIN_MANAGER_Initialize:	
  1569                           
  1570                           	psect	text7
  1571  016C                     __ptext7:	
  1572 ;; *************** function _OSCILLATOR_Initialize *****************
  1573 ;; Defined at:
  1574 ;;		line 77 in file "mcc_generated_files/mcc.c"
  1575 ;; Parameters:    Size  Location     Type
  1576 ;;		None
  1577 ;; Auto vars:     Size  Location     Type
  1578 ;;		None
  1579 ;; Return value:  Size  Location     Type
  1580 ;;                  1    wreg      void 
  1581 ;; Registers used:
  1582 ;;		wreg, status,2
  1583 ;; Tracked objects:
  1584 ;;		On entry : B1F/0
  1585 ;;		On exit  : B1F/1
  1586 ;;		Unchanged: B00/0
  1587 ;; Data sizes:     COMMON   BANK0   BANK1
  1588 ;;      Params:         0       0       0
  1589 ;;      Locals:         0       0       0
  1590 ;;      Temps:          0       0       0
  1591 ;;      Totals:         0       0       0
  1592 ;;Total ram usage:        0 bytes
  1593 ;; Hardware stack levels used:    1
  1594 ;; Hardware stack levels required when called:    4
  1595 ;; This function calls:
  1596 ;;		Nothing
  1597 ;; This function is called by:
  1598 ;;		_SYSTEM_Initialize
  1599 ;; This function uses a non-reentrant model
  1600 ;;
  1601                           
  1602                           
  1603                           ;psect for function _OSCILLATOR_Initialize
  1604  016C                     _OSCILLATOR_Initialize:	
  1605                           
  1606                           ;mcc.c: 79: OSCCON = 0x78;
  1607                           
  1608                           ;incstack = 0
  1609                           ; Regs used in _OSCILLATOR_Initialize: [wreg+status,2]
  1610  016C  3078               	movlw	120
  1611  016D  0021               	movlb	1	; select bank1
  1612  016E  0099               	movwf	25	;volatile
  1613                           
  1614                           ;mcc.c: 81: OSCSTAT = 0x00;
  1615  016F  019A               	clrf	26	;volatile
  1616                           
  1617                           ;mcc.c: 83: OSCTUNE = 0x00;
  1618  0170  0198               	clrf	24	;volatile
  1619  0171  0008               	return
  1620  0172                     __end_of_OSCILLATOR_Initialize:	
  1621                           
  1622                           	psect	text8
  1623  0154                     __ptext8:	
  1624 ;; *************** function _EUSART_Initialize *****************
  1625 ;; Defined at:
  1626 ;;		line 56 in file "mcc_generated_files/eusart.c"
  1627 ;; Parameters:    Size  Location     Type
  1628 ;;		None
  1629 ;; Auto vars:     Size  Location     Type
  1630 ;;		None
  1631 ;; Return value:  Size  Location     Type
  1632 ;;                  1    wreg      void 
  1633 ;; Registers used:
  1634 ;;		wreg
  1635 ;; Tracked objects:
  1636 ;;		On entry : B1F/7
  1637 ;;		On exit  : B1F/3
  1638 ;;		Unchanged: B00/0
  1639 ;; Data sizes:     COMMON   BANK0   BANK1
  1640 ;;      Params:         0       0       0
  1641 ;;      Locals:         0       0       0
  1642 ;;      Temps:          0       0       0
  1643 ;;      Totals:         0       0       0
  1644 ;;Total ram usage:        0 bytes
  1645 ;; Hardware stack levels used:    1
  1646 ;; Hardware stack levels required when called:    4
  1647 ;; This function calls:
  1648 ;;		Nothing
  1649 ;; This function is called by:
  1650 ;;		_SYSTEM_Initialize
  1651 ;; This function uses a non-reentrant model
  1652 ;;
  1653                           
  1654                           
  1655                           ;psect for function _EUSART_Initialize
  1656  0154                     _EUSART_Initialize:	
  1657                           
  1658                           ;eusart.c: 60: BAUDCON = 0x48;
  1659                           
  1660                           ;incstack = 0
  1661                           ; Regs used in _EUSART_Initialize: [wreg]
  1662  0154  3048               	movlw	72
  1663  0155  0023               	movlb	3	; select bank3
  1664  0156  009F               	movwf	31	;volatile
  1665                           
  1666                           ;eusart.c: 63: RCSTA = 0x80;
  1667  0157  3080               	movlw	128
  1668  0158  009D               	movwf	29	;volatile
  1669                           
  1670                           ;eusart.c: 66: TXSTA = 0x06;
  1671  0159  3006               	movlw	6
  1672  015A  009E               	movwf	30	;volatile
  1673                           
  1674                           ;eusart.c: 69: SPBRGL = 0xA0;
  1675  015B  30A0               	movlw	160
  1676  015C  009B               	movwf	27	;volatile
  1677                           
  1678                           ;eusart.c: 72: SPBRGH = 0x01;
  1679  015D  3001               	movlw	1
  1680  015E  009C               	movwf	28	;volatile
  1681  015F  0008               	return
  1682  0160                     __end_of_EUSART_Initialize:	
  1683                           
  1684                           	psect	intentry
  1685  0004                     __pintentry:	
  1686 ;; *************** function _INTERRUPT_InterruptManager *****************
  1687 ;; Defined at:
  1688 ;;		line 52 in file "mcc_generated_files/interrupt_manager.c"
  1689 ;; Parameters:    Size  Location     Type
  1690 ;;		None
  1691 ;; Auto vars:     Size  Location     Type
  1692 ;;		None
  1693 ;; Return value:  Size  Location     Type
  1694 ;;                  1    wreg      void 
  1695 ;; Registers used:
  1696 ;;		wreg, fsr0l, fsr0h, fsr1l, fsr1h, status,2, status,0, pclath, cstack
  1697 ;; Tracked objects:
  1698 ;;		On entry : 0/0
  1699 ;;		On exit  : 18/0
  1700 ;;		Unchanged: 0/0
  1701 ;; Data sizes:     COMMON   BANK0   BANK1
  1702 ;;      Params:         0       0       0
  1703 ;;      Locals:         0       0       0
  1704 ;;      Temps:          0       0       0
  1705 ;;      Totals:         0       0       0
  1706 ;;Total ram usage:        0 bytes
  1707 ;; Hardware stack levels used:    1
  1708 ;; Hardware stack levels required when called:    3
  1709 ;; This function calls:
  1710 ;;		_PIN_MANAGER_IOC
  1711 ;;		_TMR1_ISR
  1712 ;; This function is called by:
  1713 ;;		Interrupt level 1
  1714 ;; This function uses a non-reentrant model
  1715 ;;
  1716                           
  1717  0004                     _INTERRUPT_InterruptManager:	
  1718                           
  1719                           ;incstack = 0
  1720                           ; Regs used in _INTERRUPT_InterruptManager: [wreg-fsr1h+status,2+status,0+pclath+cstack]
  1721  0004  147E               	bsf	126,0	;set compiler interrupt flag (level 1)
  1722  0005  3180               	pagesel	$
  1723                           
  1724                           ;interrupt_manager.c: 54: if (INTCONbits.IOCIE == 1 && INTCONbits.IOCIF == 1) {
  1725  0006  198B               	btfsc	11,3	;volatile
  1726  0007  1C0B               	btfss	11,0	;volatile
  1727  0008  280C               	goto	i1l100
  1728                           
  1729                           ;interrupt_manager.c: 55: PIN_MANAGER_IOC();
  1730  0009  2023               	fcall	_PIN_MANAGER_IOC
  1731                           
  1732                           ;interrupt_manager.c: 58: INTCONbits.IOCIF = 0;
  1733  000A  100B               	bcf	11,0	;volatile
  1734                           
  1735                           ;interrupt_manager.c: 59: } else if (PIE1bits.TMR1IE == 1 && PIR1bits.TMR1IF == 1) {
  1736  000B  2813               	goto	i1l104
  1737  000C                     i1l100:	
  1738  000C  0021               	movlb	1	; select bank1
  1739  000D  1C11               	btfss	17,0	;volatile
  1740  000E  2813               	goto	i1l104
  1741  000F  0020               	movlb	0	; select bank0
  1742  0010  1C11               	btfss	17,0	;volatile
  1743  0011  2813               	goto	i1l104
  1744                           
  1745                           ;interrupt_manager.c: 60: TMR1_ISR();
  1746  0012  210F               	fcall	_TMR1_ISR
  1747  0013                     i1l104:	
  1748                           ;interrupt_manager.c: 61: } else {
  1749                           
  1750  0013  107E               	bcf	126,0	;clear compiler interrupt flag (level 1)
  1751  0014  0009               	retfie
  1752  0015                     __end_of_INTERRUPT_InterruptManager:	
  1753                           
  1754                           	psect	text10
  1755  010F                     __ptext10:	
  1756 ;; *************** function _TMR1_ISR *****************
  1757 ;; Defined at:
  1758 ;;		line 142 in file "mcc_generated_files/tmr1.c"
  1759 ;; Parameters:    Size  Location     Type
  1760 ;;		None
  1761 ;; Auto vars:     Size  Location     Type
  1762 ;;		None
  1763 ;; Return value:  Size  Location     Type
  1764 ;;                  1    wreg      void 
  1765 ;; Registers used:
  1766 ;;		wreg, status,2, status,0, pclath, cstack
  1767 ;; Tracked objects:
  1768 ;;		On entry : 1F/0
  1769 ;;		On exit  : 1F/0
  1770 ;;		Unchanged: 0/0
  1771 ;; Data sizes:     COMMON   BANK0   BANK1
  1772 ;;      Params:         0       0       0
  1773 ;;      Locals:         0       0       0
  1774 ;;      Temps:          0       0       0
  1775 ;;      Totals:         0       0       0
  1776 ;;Total ram usage:        0 bytes
  1777 ;; Hardware stack levels used:    1
  1778 ;; Hardware stack levels required when called:    1
  1779 ;; This function calls:
  1780 ;;		_TMR1_CallBack
  1781 ;; This function is called by:
  1782 ;;		_INTERRUPT_InterruptManager
  1783 ;; This function uses a non-reentrant model
  1784 ;;
  1785                           
  1786                           
  1787                           ;psect for function _TMR1_ISR
  1788  010F                     _TMR1_ISR:	
  1789                           
  1790                           ;tmr1.c: 143: static volatile unsigned int CountCallBack = 0;
  1791                           ;tmr1.c: 146: PIR1bits.TMR1IF = 0;
  1792                           
  1793                           ;incstack = 0
  1794                           ; Regs used in _TMR1_ISR: [wreg+status,2+status,0+pclath+cstack]
  1795  010F  1011               	bcf	17,0	;volatile
  1796                           
  1797                           ;tmr1.c: 148: TMR1H = (timer1ReloadVal >> 8);
  1798  0110  082E               	movf	_timer1ReloadVal+1,w	;volatile
  1799  0111  0097               	movwf	23	;volatile
  1800                           
  1801                           ;tmr1.c: 149: TMR1L = timer1ReloadVal;
  1802  0112  082D               	movf	_timer1ReloadVal,w	;volatile
  1803  0113  0096               	movwf	22	;volatile
  1804                           
  1805                           ;tmr1.c: 152: if (++CountCallBack >= 1) {
  1806  0114  0AFB               	incf	TMR1_ISR@CountCallBack,f	;volatile
  1807  0115  1903               	skipnz
  1808  0116  0AFC               	incf	TMR1_ISR@CountCallBack+1,f	;volatile
  1809  0117  087B               	movf	TMR1_ISR@CountCallBack,w	;volatile
  1810  0118  047C               	iorwf	TMR1_ISR@CountCallBack+1,w	;volatile
  1811  0119  1903               	btfsc	3,2
  1812  011A  0008               	return
  1813                           
  1814                           ;tmr1.c: 154: TMR1_CallBack();
  1815  011B  217E               	fcall	_TMR1_CallBack
  1816                           
  1817                           ;tmr1.c: 157: CountCallBack = 0;
  1818  011C  01FB               	clrf	TMR1_ISR@CountCallBack	;volatile
  1819  011D  01FC               	clrf	TMR1_ISR@CountCallBack+1	;volatile
  1820  011E  0008               	return
  1821  011F                     __end_of_TMR1_ISR:	
  1822                           
  1823                           	psect	text11
  1824  017E                     __ptext11:	
  1825 ;; *************** function _TMR1_CallBack *****************
  1826 ;; Defined at:
  1827 ;;		line 162 in file "mcc_generated_files/tmr1.c"
  1828 ;; Parameters:    Size  Location     Type
  1829 ;;		None
  1830 ;; Auto vars:     Size  Location     Type
  1831 ;;		None
  1832 ;; Return value:  Size  Location     Type
  1833 ;;                  1    wreg      void 
  1834 ;; Registers used:
  1835 ;;		status,2
  1836 ;; Tracked objects:
  1837 ;;		On entry : 1F/0
  1838 ;;		On exit  : 1F/0
  1839 ;;		Unchanged: 0/0
  1840 ;; Data sizes:     COMMON   BANK0   BANK1
  1841 ;;      Params:         0       0       0
  1842 ;;      Locals:         0       0       0
  1843 ;;      Temps:          0       0       0
  1844 ;;      Totals:         0       0       0
  1845 ;;Total ram usage:        0 bytes
  1846 ;; Hardware stack levels used:    1
  1847 ;; This function calls:
  1848 ;;		Nothing
  1849 ;; This function is called by:
  1850 ;;		_TMR1_ISR
  1851 ;; This function uses a non-reentrant model
  1852 ;;
  1853                           
  1854                           
  1855                           ;psect for function _TMR1_CallBack
  1856  017E                     _TMR1_CallBack:	
  1857                           
  1858                           ;tmr1.c: 164: buzzer_enable = 0;
  1859                           
  1860                           ;incstack = 0
  1861                           ; Regs used in _TMR1_CallBack: [status,2]
  1862  017E  01A6               	clrf	_buzzer_enable	;volatile
  1863  017F  0008               	return
  1864  0180                     __end_of_TMR1_CallBack:	
  1865                           
  1866                           	psect	text12
  1867  0023                     __ptext12:	
  1868 ;; *************** function _PIN_MANAGER_IOC *****************
  1869 ;; Defined at:
  1870 ;;		line 92 in file "mcc_generated_files/pin_manager.c"
  1871 ;; Parameters:    Size  Location     Type
  1872 ;;		None
  1873 ;; Auto vars:     Size  Location     Type
  1874 ;;  delta           2    9[COMMON] unsigned int 
  1875 ;;  time            2    7[COMMON] unsigned int 
  1876 ;;  index           1    6[COMMON] unsigned char 
  1877 ;; Return value:  Size  Location     Type
  1878 ;;                  1    wreg      void 
  1879 ;; Registers used:
  1880 ;;		wreg, fsr0l, fsr0h, fsr1l, fsr1h, status,2, status,0, pclath, cstack
  1881 ;; Tracked objects:
  1882 ;;		On entry : 0/0
  1883 ;;		On exit  : 1F/7
  1884 ;;		Unchanged: 0/0
  1885 ;; Data sizes:     COMMON   BANK0   BANK1
  1886 ;;      Params:         0       0       0
  1887 ;;      Locals:         5       0       0
  1888 ;;      Temps:          2       0       0
  1889 ;;      Totals:         7       0       0
  1890 ;;Total ram usage:        7 bytes
  1891 ;; Hardware stack levels used:    1
  1892 ;; Hardware stack levels required when called:    2
  1893 ;; This function calls:
  1894 ;;		_TMR1_WriteTimer
  1895 ;;		i1_TMR1_ReadTimer
  1896 ;; This function is called by:
  1897 ;;		_INTERRUPT_InterruptManager
  1898 ;; This function uses a non-reentrant model
  1899 ;;
  1900                           
  1901                           
  1902                           ;psect for function _PIN_MANAGER_IOC
  1903  0023                     _PIN_MANAGER_IOC:	
  1904                           
  1905                           ;pin_manager.c: 93: unsigned int time, delta;
  1906                           ;pin_manager.c: 94: unsigned char index;
  1907                           ;pin_manager.c: 96: if (IOCAF2 == 1) {
  1908                           
  1909                           ;incstack = 0
  1910                           ; Regs used in _PIN_MANAGER_IOC: [wreg-fsr1h+status,2+status,0+pclath+cstack]
  1911  0023  0027               	movlb	7	; select bank7
  1912  0024  1D13               	btfss	19,2	;volatile
  1913  0025  0008               	return
  1914                           
  1915                           ;pin_manager.c: 98: time = TMR1_ReadTimer();
  1916  0026  2160               	fcall	i1_TMR1_ReadTimer
  1917  0027  0871               	movf	?i1_TMR1_ReadTimer+1,w
  1918  0028  00F8               	movwf	PIN_MANAGER_IOC@time+1
  1919  0029  0870               	movf	?i1_TMR1_ReadTimer,w
  1920  002A  00F7               	movwf	PIN_MANAGER_IOC@time
  1921                           
  1922                           ;pin_manager.c: 100: delta = time - prev_timer_value;
  1923  002B  0878               	movf	PIN_MANAGER_IOC@time+1,w
  1924  002C  00FA               	movwf	PIN_MANAGER_IOC@delta+1
  1925  002D  0877               	movf	PIN_MANAGER_IOC@time,w
  1926  002E  00F9               	movwf	PIN_MANAGER_IOC@delta
  1927  002F  0824               	movf	_prev_timer_value,w
  1928  0030  02F9               	subwf	PIN_MANAGER_IOC@delta,f
  1929  0031  0825               	movf	_prev_timer_value+1,w
  1930  0032  3BFA               	subwfb	PIN_MANAGER_IOC@delta+1,f
  1931                           
  1932                           ;pin_manager.c: 101: prev_timer_value = time;
  1933  0033  0878               	movf	PIN_MANAGER_IOC@time+1,w
  1934  0034  00A5               	movwf	_prev_timer_value+1
  1935  0035  0877               	movf	PIN_MANAGER_IOC@time,w
  1936  0036  00A4               	movwf	_prev_timer_value
  1937                           
  1938                           ;pin_manager.c: 102: if(bit_number == 0 && delta > start_pulse[0] && delta < start_pulse
      +                          [1])
  1939  0037  087D               	movf	_bit_number,w
  1940  0038  1D03               	btfss	3,2
  1941  0039  285F               	goto	i1l1016
  1942  003A  3040               	movlw	low (_start_pulse| (0+32768))
  1943  003B  0084               	movwf	4
  1944  003C  3081               	movlw	high (_start_pulse| (0+32768))
  1945  003D  0085               	movwf	5
  1946  003E  3F00               	moviw [0]fsr0
  1947  003F  00F4               	movwf	??_PIN_MANAGER_IOC
  1948  0040  3F01               	moviw [1]fsr0
  1949  0041  00F5               	movwf	??_PIN_MANAGER_IOC+1
  1950  0042  087A               	movf	PIN_MANAGER_IOC@delta+1,w
  1951  0043  0275               	subwf	??_PIN_MANAGER_IOC+1,w
  1952  0044  1D03               	skipz
  1953  0045  2848               	goto	u27_25
  1954  0046  0879               	movf	PIN_MANAGER_IOC@delta,w
  1955  0047  0274               	subwf	??_PIN_MANAGER_IOC,w
  1956  0048                     u27_25:	
  1957  0048  1803               	skipnc
  1958  0049  285F               	goto	i1l1016
  1959  004A  3042               	movlw	low ((_start_pulse+2)| (0+32768))
  1960  004B  0084               	movwf	4
  1961  004C  3081               	movlw	high ((_start_pulse+2)| (0+32768))
  1962  004D  0085               	movwf	5
  1963  004E  3F00               	moviw [0]fsr0
  1964  004F  00F4               	movwf	??_PIN_MANAGER_IOC
  1965  0050  3F01               	moviw [1]fsr0
  1966  0051  00F5               	movwf	??_PIN_MANAGER_IOC+1
  1967  0052  027A               	subwf	PIN_MANAGER_IOC@delta+1,w
  1968  0053  1D03               	skipz
  1969  0054  2857               	goto	u28_25
  1970  0055  0874               	movf	??_PIN_MANAGER_IOC,w
  1971  0056  0279               	subwf	PIN_MANAGER_IOC@delta,w
  1972  0057                     u28_25:	
  1973  0057  1803               	skipnc
  1974  0058  285F               	goto	i1l1016
  1975                           
  1976                           ;pin_manager.c: 103: {
  1977                           ;pin_manager.c: 104: bit_number++;
  1978  0059  0AFD               	incf	_bit_number,f
  1979                           
  1980                           ;pin_manager.c: 105: data[0] = data[1] = data[2] = data[3] = 0;
  1981  005A  01A3               	clrf	_data+3
  1982  005B  01A2               	clrf	_data+2
  1983  005C  01A1               	clrf	_data+1
  1984  005D  01A0               	clrf	_data
  1985                           
  1986                           ;pin_manager.c: 106: }
  1987  005E  28C6               	goto	i1l1038
  1988  005F                     i1l1016:	
  1989                           
  1990                           ;pin_manager.c: 107: else if(bit_number <= 32)
  1991  005F  3021               	movlw	33
  1992  0060  027D               	subwf	_bit_number,w
  1993  0061  1803               	skipnc
  1994  0062  28C5               	goto	i1l1034
  1995                           
  1996                           ;pin_manager.c: 108: {
  1997                           ;pin_manager.c: 109: index = (bit_number-1) >> 3;
  1998  0063  087D               	movf	_bit_number,w
  1999  0064  3EFF               	addlw	255
  2000  0065  00F4               	movwf	??_PIN_MANAGER_IOC
  2001  0066  30FF               	movlw	255
  2002  0067  1803               	skipnc
  2003  0068  3000               	movlw	0
  2004  0069  00F5               	movwf	??_PIN_MANAGER_IOC+1
  2005  006A  0D75               	rlf	??_PIN_MANAGER_IOC+1,w
  2006  006B  0CF5               	rrf	??_PIN_MANAGER_IOC+1,f
  2007  006C  0CF4               	rrf	??_PIN_MANAGER_IOC,f
  2008  006D  0D75               	rlf	??_PIN_MANAGER_IOC+1,w
  2009  006E  0CF5               	rrf	??_PIN_MANAGER_IOC+1,f
  2010  006F  0CF4               	rrf	??_PIN_MANAGER_IOC,f
  2011  0070  0D75               	rlf	??_PIN_MANAGER_IOC+1,w
  2012  0071  0CF5               	rrf	??_PIN_MANAGER_IOC+1,f
  2013  0072  0CF4               	rrf	??_PIN_MANAGER_IOC,f
  2014  0073  0874               	movf	??_PIN_MANAGER_IOC,w
  2015  0074  00F6               	movwf	PIN_MANAGER_IOC@index
  2016                           
  2017                           ;pin_manager.c: 110: if(delta > one_length[0] && delta < one_length[1])
  2018  0075  303C               	movlw	low (_one_length| (0+32768))
  2019  0076  0084               	movwf	4
  2020  0077  3081               	movlw	high (_one_length| (0+32768))
  2021  0078  0085               	movwf	5
  2022  0079  3F00               	moviw [0]fsr0
  2023  007A  00F4               	movwf	??_PIN_MANAGER_IOC
  2024  007B  3F01               	moviw [1]fsr0
  2025  007C  00F5               	movwf	??_PIN_MANAGER_IOC+1
  2026  007D  087A               	movf	PIN_MANAGER_IOC@delta+1,w
  2027  007E  0275               	subwf	??_PIN_MANAGER_IOC+1,w
  2028  007F  1D03               	skipz
  2029  0080  2883               	goto	u30_25
  2030  0081  0879               	movf	PIN_MANAGER_IOC@delta,w
  2031  0082  0274               	subwf	??_PIN_MANAGER_IOC,w
  2032  0083                     u30_25:	
  2033  0083  1803               	skipnc
  2034  0084  28A6               	goto	i1l1028
  2035  0085  303E               	movlw	low ((_one_length+2)| (0+32768))
  2036  0086  0084               	movwf	4
  2037  0087  3081               	movlw	high ((_one_length+2)| (0+32768))
  2038  0088  0085               	movwf	5
  2039  0089  3F00               	moviw [0]fsr0
  2040  008A  00F4               	movwf	??_PIN_MANAGER_IOC
  2041  008B  3F01               	moviw [1]fsr0
  2042  008C  00F5               	movwf	??_PIN_MANAGER_IOC+1
  2043  008D  027A               	subwf	PIN_MANAGER_IOC@delta+1,w
  2044  008E  1D03               	skipz
  2045  008F  2892               	goto	u31_25
  2046  0090  0874               	movf	??_PIN_MANAGER_IOC,w
  2047  0091  0279               	subwf	PIN_MANAGER_IOC@delta,w
  2048  0092                     u31_25:	
  2049  0092  1803               	skipnc
  2050  0093  28A6               	goto	i1l1028
  2051                           
  2052                           ;pin_manager.c: 111: {
  2053                           ;pin_manager.c: 112: data[index] |= 1<<((bit_number-1) & 7);
  2054  0094  0876               	movf	PIN_MANAGER_IOC@index,w
  2055  0095  3E20               	addlw	(low (_data| 0))& (0+255)
  2056  0096  0086               	movwf	6
  2057  0097  3001               	movlw	1
  2058  0098  0187               	clrf	7
  2059  0099  00F4               	movwf	??_PIN_MANAGER_IOC
  2060  009A  087D               	movf	_bit_number,w
  2061  009B  3EFF               	addlw	255
  2062  009C  3907               	andlw	7
  2063  009D  0A89               	incf	9,f
  2064  009E  28A0               	goto	u32_24
  2065  009F                     u32_25:	
  2066  009F  35F4               	lslf	??_PIN_MANAGER_IOC,f
  2067  00A0                     u32_24:	
  2068  00A0  0B89               	decfsz	9,f
  2069  00A1  289F               	goto	u32_25
  2070  00A2  0874               	movf	??_PIN_MANAGER_IOC,w
  2071  00A3  0481               	iorwf	1,f
  2072  00A4                     i1l1026:	
  2073                           
  2074                           ;pin_manager.c: 113: bit_number++;
  2075  00A4  0AFD               	incf	_bit_number,f
  2076                           
  2077                           ;pin_manager.c: 114: }
  2078  00A5  28C6               	goto	i1l1038
  2079  00A6                     i1l1028:	
  2080                           
  2081                           ;pin_manager.c: 115: else if(delta > zero_length[0] && delta < zero_length[1])
  2082  00A6  3044               	movlw	low (_zero_length| (0+32768))
  2083  00A7  0084               	movwf	4
  2084  00A8  3081               	movlw	high (_zero_length| (0+32768))
  2085  00A9  0085               	movwf	5
  2086  00AA  3F00               	moviw [0]fsr0
  2087  00AB  00F4               	movwf	??_PIN_MANAGER_IOC
  2088  00AC  3F01               	moviw [1]fsr0
  2089  00AD  00F5               	movwf	??_PIN_MANAGER_IOC+1
  2090  00AE  087A               	movf	PIN_MANAGER_IOC@delta+1,w
  2091  00AF  0275               	subwf	??_PIN_MANAGER_IOC+1,w
  2092  00B0  1D03               	skipz
  2093  00B1  28B4               	goto	u33_25
  2094  00B2  0879               	movf	PIN_MANAGER_IOC@delta,w
  2095  00B3  0274               	subwf	??_PIN_MANAGER_IOC,w
  2096  00B4                     u33_25:	
  2097  00B4  1803               	skipnc
  2098  00B5  28C5               	goto	i1l1034
  2099  00B6  3046               	movlw	low ((_zero_length+2)| (0+32768))
  2100  00B7  0084               	movwf	4
  2101  00B8  3081               	movlw	high ((_zero_length+2)| (0+32768))
  2102  00B9  0085               	movwf	5
  2103  00BA  3F00               	moviw [0]fsr0
  2104  00BB  00F4               	movwf	??_PIN_MANAGER_IOC
  2105  00BC  3F01               	moviw [1]fsr0
  2106  00BD  00F5               	movwf	??_PIN_MANAGER_IOC+1
  2107  00BE  027A               	subwf	PIN_MANAGER_IOC@delta+1,w
  2108  00BF  1D03               	skipz
  2109  00C0  28C3               	goto	u34_25
  2110  00C1  0874               	movf	??_PIN_MANAGER_IOC,w
  2111  00C2  0279               	subwf	PIN_MANAGER_IOC@delta,w
  2112  00C3                     u34_25:	
  2113  00C3  1C03               	btfss	3,0
  2114  00C4  28A4               	goto	i1l1026
  2115  00C5                     i1l1034:	
  2116                           
  2117                           ;pin_manager.c: 119: else
  2118                           ;pin_manager.c: 120: {
  2119                           ;pin_manager.c: 121: bit_number = 0;
  2120  00C5  01FD               	clrf	_bit_number
  2121  00C6                     i1l1038:	
  2122                           
  2123                           ;pin_manager.c: 127: }
  2124                           ;pin_manager.c: 130: if(bit_number == 32)
  2125  00C6  3020               	movlw	32
  2126  00C7  067D               	xorwf	_bit_number,w
  2127  00C8  1D03               	btfss	3,2
  2128  00C9  28E0               	goto	i1l1056
  2129                           
  2130                           ;pin_manager.c: 131: {
  2131                           ;pin_manager.c: 132: if(data[1] == 0xAF && data[2] == 0x1d && data[3] == 0x62)
  2132  00CA  30AF               	movlw	175
  2133  00CB  0621               	xorwf	_data+1,w
  2134  00CC  1D03               	btfss	3,2
  2135  00CD  28DF               	goto	i1l1054
  2136  00CE  301D               	movlw	29
  2137  00CF  0622               	xorwf	_data+2,w
  2138  00D0  1D03               	btfss	3,2
  2139  00D1  28DF               	goto	i1l1054
  2140  00D2  3062               	movlw	98
  2141  00D3  0623               	xorwf	_data+3,w
  2142  00D4  1D03               	btfss	3,2
  2143  00D5  28DF               	goto	i1l1054
  2144                           
  2145                           ;pin_manager.c: 133: {
  2146                           ;pin_manager.c: 134: buzzer_enable = 1;
  2147  00D6  3001               	movlw	1
  2148  00D7  00A6               	movwf	_buzzer_enable	;volatile
  2149                           
  2150                           ;pin_manager.c: 135: prev_timer_value = 0;
  2151  00D8  01A4               	clrf	_prev_timer_value
  2152  00D9  01A5               	clrf	_prev_timer_value+1
  2153                           
  2154                           ;pin_manager.c: 136: TMR1_WriteTimer(0);
  2155  00DA  01F0               	clrf	TMR1_WriteTimer@timerVal
  2156  00DB  01F1               	clrf	TMR1_WriteTimer@timerVal+1
  2157  00DC  212E               	fcall	_TMR1_WriteTimer
  2158                           
  2159                           ;pin_manager.c: 137: RC0 = !RC0;
  2160  00DD  3001               	movlw	1
  2161  00DE  068E               	xorwf	14,f
  2162  00DF                     i1l1054:	
  2163                           
  2164                           ;pin_manager.c: 138: }
  2165                           ;pin_manager.c: 140: bit_number = 0;
  2166  00DF  01FD               	clrf	_bit_number
  2167  00E0                     i1l1056:	
  2168                           
  2169                           ;pin_manager.c: 141: }
  2170                           ;pin_manager.c: 144: IOCAF2 = 0;
  2171  00E0  0027               	movlb	7	; select bank7
  2172  00E1  1113               	bcf	19,2	;volatile
  2173  00E2  0008               	return
  2174  00E3                     __end_of_PIN_MANAGER_IOC:	
  2175                           
  2176                           	psect	text13
  2177  0160                     __ptext13:	
  2178 ;; *************** function i1_TMR1_ReadTimer *****************
  2179 ;; Defined at:
  2180 ;;		line 102 in file "mcc_generated_files/tmr1.c"
  2181 ;; Parameters:    Size  Location     Type
  2182 ;;		None
  2183 ;; Auto vars:     Size  Location     Type
  2184 ;;  TMR1_ReadTim    2    2[COMMON] unsigned int 
  2185 ;; Return value:  Size  Location     Type
  2186 ;;                  2    0[COMMON] unsigned int 
  2187 ;; Registers used:
  2188 ;;		wreg, status,2, status,0, pclath, cstack
  2189 ;; Tracked objects:
  2190 ;;		On entry : 1F/7
  2191 ;;		On exit  : 1F/0
  2192 ;;		Unchanged: 0/0
  2193 ;; Data sizes:     COMMON   BANK0   BANK1
  2194 ;;      Params:         2       0       0
  2195 ;;      Locals:         2       0       0
  2196 ;;      Temps:          0       0       0
  2197 ;;      Totals:         4       0       0
  2198 ;;Total ram usage:        4 bytes
  2199 ;; Hardware stack levels used:    1
  2200 ;; Hardware stack levels required when called:    1
  2201 ;; This function calls:
  2202 ;;		i1_TMR1_StartTimer
  2203 ;;		i1_TMR1_StopTimer
  2204 ;; This function is called by:
  2205 ;;		_PIN_MANAGER_IOC
  2206 ;; This function uses a non-reentrant model
  2207 ;;
  2208                           
  2209                           
  2210                           ;psect for function i1_TMR1_ReadTimer
  2211  0160                     i1_TMR1_ReadTimer:	
  2212                           
  2213                           ;tmr1.c: 103: uint16_t readVal;
  2214                           ;tmr1.c: 104: TMR1_StopTimer();
  2215                           
  2216                           ;incstack = 0
  2217                           ; Regs used in i1_TMR1_ReadTimer: [wreg+status,2+status,0+pclath+cstack]
  2218  0160  2179               	fcall	i1_TMR1_StopTimer
  2219                           
  2220                           ;tmr1.c: 105: readVal = (TMR1H << 8) | TMR1L;
  2221  0161  0817               	movf	23,w	;volatile
  2222  0162  00F3               	movwf	i1TMR1_ReadTimer@readVal+1
  2223  0163  01F2               	clrf	i1TMR1_ReadTimer@readVal
  2224  0164  0816               	movf	22,w	;volatile
  2225  0165  04F2               	iorwf	i1TMR1_ReadTimer@readVal,f
  2226                           
  2227                           ;tmr1.c: 106: TMR1_StartTimer();
  2228  0166  2180               	fcall	i1_TMR1_StartTimer
  2229                           
  2230                           ;tmr1.c: 107: return readVal;
  2231  0167  0873               	movf	i1TMR1_ReadTimer@readVal+1,w
  2232  0168  00F1               	movwf	?i1_TMR1_ReadTimer+1
  2233  0169  0872               	movf	i1TMR1_ReadTimer@readVal,w
  2234  016A  00F0               	movwf	?i1_TMR1_ReadTimer
  2235  016B  0008               	return
  2236  016C                     __end_ofi1_TMR1_ReadTimer:	
  2237                           
  2238                           	psect	text14
  2239  0179                     __ptext14:	
  2240 ;; *************** function i1_TMR1_StopTimer *****************
  2241 ;; Defined at:
  2242 ;;		line 97 in file "mcc_generated_files/tmr1.c"
  2243 ;; Parameters:    Size  Location     Type
  2244 ;;		None
  2245 ;; Auto vars:     Size  Location     Type
  2246 ;;		None
  2247 ;; Return value:  Size  Location     Type
  2248 ;;                  1    wreg      void 
  2249 ;; Registers used:
  2250 ;;		None
  2251 ;; Tracked objects:
  2252 ;;		On entry : 1F/7
  2253 ;;		On exit  : 1F/0
  2254 ;;		Unchanged: 0/0
  2255 ;; Data sizes:     COMMON   BANK0   BANK1
  2256 ;;      Params:         0       0       0
  2257 ;;      Locals:         0       0       0
  2258 ;;      Temps:          0       0       0
  2259 ;;      Totals:         0       0       0
  2260 ;;Total ram usage:        0 bytes
  2261 ;; Hardware stack levels used:    1
  2262 ;; This function calls:
  2263 ;;		Nothing
  2264 ;; This function is called by:
  2265 ;;		i1_TMR1_ReadTimer
  2266 ;; This function uses a non-reentrant model
  2267 ;;
  2268                           
  2269                           
  2270                           ;psect for function i1_TMR1_StopTimer
  2271  0179                     i1_TMR1_StopTimer:	
  2272                           
  2273                           ;tmr1.c: 99: T1CONbits.TMR1ON = 0;
  2274                           
  2275                           ;incstack = 0
  2276                           ; Regs used in i1_TMR1_StopTimer: []
  2277  0179  0020               	movlb	0	; select bank0
  2278  017A  1018               	bcf	24,0	;volatile
  2279  017B  0008               	return
  2280  017C                     __end_ofi1_TMR1_StopTimer:	
  2281                           
  2282                           	psect	text15
  2283  0180                     __ptext15:	
  2284 ;; *************** function i1_TMR1_StartTimer *****************
  2285 ;; Defined at:
  2286 ;;		line 92 in file "mcc_generated_files/tmr1.c"
  2287 ;; Parameters:    Size  Location     Type
  2288 ;;		None
  2289 ;; Auto vars:     Size  Location     Type
  2290 ;;		None
  2291 ;; Return value:  Size  Location     Type
  2292 ;;                  1    wreg      void 
  2293 ;; Registers used:
  2294 ;;		None
  2295 ;; Tracked objects:
  2296 ;;		On entry : 1F/0
  2297 ;;		On exit  : 1F/0
  2298 ;;		Unchanged: 0/0
  2299 ;; Data sizes:     COMMON   BANK0   BANK1
  2300 ;;      Params:         0       0       0
  2301 ;;      Locals:         0       0       0
  2302 ;;      Temps:          0       0       0
  2303 ;;      Totals:         0       0       0
  2304 ;;Total ram usage:        0 bytes
  2305 ;; Hardware stack levels used:    1
  2306 ;; This function calls:
  2307 ;;		Nothing
  2308 ;; This function is called by:
  2309 ;;		i1_TMR1_ReadTimer
  2310 ;; This function uses a non-reentrant model
  2311 ;;
  2312                           
  2313                           
  2314                           ;psect for function i1_TMR1_StartTimer
  2315  0180                     i1_TMR1_StartTimer:	
  2316                           
  2317                           ;tmr1.c: 94: T1CONbits.TMR1ON = 1;
  2318                           
  2319                           ;incstack = 0
  2320                           ; Regs used in i1_TMR1_StartTimer: []
  2321  0180  1418               	bsf	24,0	;volatile
  2322  0181  0008               	return
  2323  0182                     __end_ofi1_TMR1_StartTimer:	
  2324                           
  2325                           	psect	text16
  2326  012E                     __ptext16:	
  2327 ;; *************** function _TMR1_WriteTimer *****************
  2328 ;; Defined at:
  2329 ;;		line 110 in file "mcc_generated_files/tmr1.c"
  2330 ;; Parameters:    Size  Location     Type
  2331 ;;  timerVal        2    0[COMMON] unsigned int 
  2332 ;; Auto vars:     Size  Location     Type
  2333 ;;		None
  2334 ;; Return value:  Size  Location     Type
  2335 ;;                  1    wreg      void 
  2336 ;; Registers used:
  2337 ;;		wreg
  2338 ;; Tracked objects:
  2339 ;;		On entry : 1F/0
  2340 ;;		On exit  : 1F/0
  2341 ;;		Unchanged: 0/0
  2342 ;; Data sizes:     COMMON   BANK0   BANK1
  2343 ;;      Params:         2       0       0
  2344 ;;      Locals:         0       0       0
  2345 ;;      Temps:          0       0       0
  2346 ;;      Totals:         2       0       0
  2347 ;;Total ram usage:        2 bytes
  2348 ;; Hardware stack levels used:    1
  2349 ;; This function calls:
  2350 ;;		Nothing
  2351 ;; This function is called by:
  2352 ;;		_PIN_MANAGER_IOC
  2353 ;; This function uses a non-reentrant model
  2354 ;;
  2355                           
  2356                           
  2357                           ;psect for function _TMR1_WriteTimer
  2358  012E                     _TMR1_WriteTimer:	
  2359                           
  2360                           ;tmr1.c: 111: if (T1CONbits.nT1SYNC == 1) {
  2361                           
  2362                           ;incstack = 0
  2363                           ; Regs used in _TMR1_WriteTimer: [wreg]
  2364  012E  1D18               	btfss	24,2	;volatile
  2365  012F  2937               	goto	i1l954
  2366                           
  2367                           ;tmr1.c: 113: T1CONbits.TMR1ON = 0;
  2368  0130  1018               	bcf	24,0	;volatile
  2369                           
  2370                           ;tmr1.c: 116: TMR1H = (timerVal >> 8);
  2371  0131  0871               	movf	TMR1_WriteTimer@timerVal+1,w
  2372  0132  0097               	movwf	23	;volatile
  2373                           
  2374                           ;tmr1.c: 117: TMR1L = timerVal;
  2375  0133  0870               	movf	TMR1_WriteTimer@timerVal,w
  2376  0134  0096               	movwf	22	;volatile
  2377                           
  2378                           ;tmr1.c: 120: T1CONbits.TMR1ON = 1;
  2379  0135  1418               	bsf	24,0	;volatile
  2380                           
  2381                           ;tmr1.c: 121: } else {
  2382  0136  0008               	return
  2383  0137                     i1l954:	
  2384                           
  2385                           ;tmr1.c: 123: TMR1H = (timerVal >> 8);
  2386  0137  0871               	movf	TMR1_WriteTimer@timerVal+1,w
  2387  0138  0097               	movwf	23	;volatile
  2388                           
  2389                           ;tmr1.c: 124: TMR1L = timerVal;
  2390  0139  0870               	movf	TMR1_WriteTimer@timerVal,w
  2391  013A  0096               	movwf	22	;volatile
  2392  013B  0008               	return
  2393  013C                     __end_of_TMR1_WriteTimer:	
  2394  007E                     btemp	set	126	;btemp
  2395  007E                     int$flags	set	126
  2396  007E                     wtemp	set	126
  2397  007E                     wtemp0	set	126
  2398  0080                     wtemp1	set	128
  2399  0082                     wtemp2	set	130
  2400  0084                     wtemp3	set	132
  2401  0086                     wtemp4	set	134
  2402  0088                     wtemp5	set	136
  2403  007F                     wtemp6	set	127
  2404  007E                     ttemp	set	126
  2405  007E                     ttemp0	set	126
  2406  0081                     ttemp1	set	129
  2407  0084                     ttemp2	set	132
  2408  0087                     ttemp3	set	135
  2409  007F                     ttemp4	set	127
  2410  007E                     ltemp	set	126
  2411  007E                     ltemp0	set	126
  2412  0082                     ltemp1	set	130
  2413  0086                     ltemp2	set	134
  2414  0080                     ltemp3	set	128


Data Sizes:
    Strings     0
    Constant    12
    Data        0
    BSS         10
    Persistent  2
    Stack       0

Auto Spaces:
    Space          Size  Autos    Used
    COMMON           14     11      14
    BANK0            80      6      15
    BANK1            32      0       0

Pointer List with Targets:

    None.

Critical Paths under _main in COMMON

    None.

Critical Paths under _INTERRUPT_InterruptManager in COMMON

    _INTERRUPT_InterruptManager->_PIN_MANAGER_IOC
    _PIN_MANAGER_IOC->i1_TMR1_ReadTimer

Critical Paths under _main in BANK0

    _main->_TMR1_ReadTimer

Critical Paths under _INTERRUPT_InterruptManager in BANK0

    None.

Critical Paths under _main in BANK1

    None.

Critical Paths under _INTERRUPT_InterruptManager in BANK1

    None.

Call Graph Tables:

 ---------------------------------------------------------------------------------
 (Depth) Function   	        Calls       Base Space   Used Autos Params    Refs
 ---------------------------------------------------------------------------------
 (0) _main                                                 2     2      0      24
                                              4 BANK0      2     2      0
                  _SYSTEM_Initialize
                     _TMR1_ReadTimer
 ---------------------------------------------------------------------------------
 (1) _TMR1_ReadTimer                                       4     2      2      24
                                              0 BANK0      4     2      2
                    _TMR1_StartTimer
                     _TMR1_StopTimer
 ---------------------------------------------------------------------------------
 (2) _TMR1_StopTimer                                       0     0      0       0
 ---------------------------------------------------------------------------------
 (1) _SYSTEM_Initialize                                    0     0      0       0
                  _EUSART_Initialize
              _OSCILLATOR_Initialize
             _PIN_MANAGER_Initialize
                    _TMR1_Initialize
 ---------------------------------------------------------------------------------
 (2) _TMR1_Initialize                                      0     0      0       0
                    _TMR1_StartTimer
 ---------------------------------------------------------------------------------
 (2) _TMR1_StartTimer                                      0     0      0       0
 ---------------------------------------------------------------------------------
 (2) _PIN_MANAGER_Initialize                               0     0      0       0
 ---------------------------------------------------------------------------------
 (2) _OSCILLATOR_Initialize                                0     0      0       0
 ---------------------------------------------------------------------------------
 (2) _EUSART_Initialize                                    0     0      0       0
 ---------------------------------------------------------------------------------
 Estimated maximum stack depth 2
 ---------------------------------------------------------------------------------
 (Depth) Function   	        Calls       Base Space   Used Autos Params    Refs
 ---------------------------------------------------------------------------------
 (4) _INTERRUPT_InterruptManager                           0     0      0     380
                    _PIN_MANAGER_IOC
                           _TMR1_ISR
 ---------------------------------------------------------------------------------
 (5) _TMR1_ISR                                             0     0      0       0
                      _TMR1_CallBack
 ---------------------------------------------------------------------------------
 (6) _TMR1_CallBack                                        0     0      0       0
 ---------------------------------------------------------------------------------
 (5) _PIN_MANAGER_IOC                                      7     7      0     380
                                              4 COMMON     7     7      0
                    _TMR1_WriteTimer
                   i1_TMR1_ReadTimer
 ---------------------------------------------------------------------------------
 (6) i1_TMR1_ReadTimer                                     4     2      2      24
                                              0 COMMON     4     2      2
                  i1_TMR1_StartTimer
                   i1_TMR1_StopTimer
 ---------------------------------------------------------------------------------
 (7) i1_TMR1_StopTimer                                     0     0      0       0
 ---------------------------------------------------------------------------------
 (7) i1_TMR1_StartTimer                                    0     0      0       0
 ---------------------------------------------------------------------------------
 (6) _TMR1_WriteTimer                                      2     0      2     154
                                              0 COMMON     2     0      2
 ---------------------------------------------------------------------------------
 Estimated maximum stack depth 7
 ---------------------------------------------------------------------------------

 Call Graph Graphs:

 _main (ROOT)
   _SYSTEM_Initialize
     _EUSART_Initialize
     _OSCILLATOR_Initialize
     _PIN_MANAGER_Initialize
     _TMR1_Initialize
       _TMR1_StartTimer
   _TMR1_ReadTimer
     _TMR1_StartTimer
     _TMR1_StopTimer

 _INTERRUPT_InterruptManager (ROOT)
   _PIN_MANAGER_IOC
     _TMR1_WriteTimer
     i1_TMR1_ReadTimer
       i1_TMR1_StartTimer
       i1_TMR1_StopTimer
   _TMR1_ISR
     _TMR1_CallBack

 Address spaces:
Name               Size   Autos  Total    Cost      Usage
BIGRAM              70      0       0       0        0.0%
EEDATA             100      0       0       0        0.0%
NULL                 0      0       0       0        0.0%
CODE                 0      0       0       0        0.0%
BITCOMMON            E      0       0       1        0.0%
BITSFR0              0      0       0       1        0.0%
SFR0                 0      0       0       1        0.0%
COMMON               E      B       E       2      100.0%
BITSFR1              0      0       0       2        0.0%
SFR1                 0      0       0       2        0.0%
BITSFR2              0      0       0       3        0.0%
SFR2                 0      0       0       3        0.0%
STACK                0      0       0       3        0.0%
BITSFR3              0      0       0       4        0.0%
SFR3                 0      0       0       4        0.0%
ABS                  0      0      1D       4        0.0%
BITBANK0            50      0       0       5        0.0%
BITSFR4              0      0       0       5        0.0%
SFR4                 0      0       0       5        0.0%
BANK0               50      6       F       6       18.8%
BITSFR5              0      0       0       6        0.0%
SFR5                 0      0       0       6        0.0%
BITBANK1            20      0       0       7        0.0%
BITSFR6              0      0       0       7        0.0%
SFR6                 0      0       0       7        0.0%
BANK1               20      0       0       8        0.0%
BITSFR7              0      0       0       8        0.0%
SFR7                 0      0       0       8        0.0%
BITSFR8              0      0       0       9        0.0%
SFR8                 0      0       0       9        0.0%
DATA                 0      0      1D       9        0.0%
BITSFR9              0      0       0      10        0.0%
SFR9                 0      0       0      10        0.0%
BITSFR10             0      0       0      11        0.0%
SFR10                0      0       0      11        0.0%
BITSFR11             0      0       0      12        0.0%
SFR11                0      0       0      12        0.0%
BITSFR12             0      0       0      13        0.0%
SFR12                0      0       0      13        0.0%
BITSFR13             0      0       0      14        0.0%
SFR13                0      0       0      14        0.0%
BITSFR14             0      0       0      15        0.0%
SFR14                0      0       0      15        0.0%
BITSFR15             0      0       0      16        0.0%
SFR15                0      0       0      16        0.0%
BITSFR16             0      0       0      17        0.0%
SFR16                0      0       0      17        0.0%
BITSFR17             0      0       0      18        0.0%
SFR17                0      0       0      18        0.0%
BITSFR18             0      0       0      19        0.0%
SFR18                0      0       0      19        0.0%
BITSFR19             0      0       0      20        0.0%
SFR19                0      0       0      20        0.0%
BITSFR20             0      0       0      21        0.0%
SFR20                0      0       0      21        0.0%
BITSFR21             0      0       0      22        0.0%
SFR21                0      0       0      22        0.0%
BITSFR22             0      0       0      23        0.0%
SFR22                0      0       0      23        0.0%
BITSFR23             0      0       0      24        0.0%
SFR23                0      0       0      24        0.0%
BITSFR24             0      0       0      25        0.0%
SFR24                0      0       0      25        0.0%
BITSFR25             0      0       0      26        0.0%
SFR25                0      0       0      26        0.0%
BITSFR26             0      0       0      27        0.0%
SFR26                0      0       0      27        0.0%
BITSFR27             0      0       0      28        0.0%
SFR27                0      0       0      28        0.0%
BITSFR28             0      0       0      29        0.0%
SFR28                0      0       0      29        0.0%
BITSFR29             0      0       0      30        0.0%
SFR29                0      0       0      30        0.0%
BITSFR30             0      0       0      31        0.0%
SFR30                0      0       0      31        0.0%
BITSFR31             0      0       0      32        0.0%
SFR31                0      0       0      32        0.0%


Microchip Technology PIC Macro Assembler V1.37 build -260352376 
Symbol Table                                                                                   Tue Apr 05 00:05:28 2016

                        __CFG_CP$OFF 0000                                  l916 0176  
                                l964 011F                                  _RC0 0070  
                                _RA5 0065                                  u450 010C  
                       __CFG_CPD$OFF 0000             __end_ofi1_TMR1_ReadTimer 016C  
                    _timer1ReloadVal 002D                          _start_pulse 0140  
                       __CFG_BORV$LO 0000                                  wreg 0009  
                       __CFG_IESO$ON 0000                         __CFG_LVP$OFF 0000  
                               l1098 00FF                                 _LATA 010C  
                               _LATC 010E                                 _WPUA 020C  
                               _WPUC 020E                         __CFG_WRT$OFF 0000  
                      __CFG_FCMEN$ON 0000                                 _data 0020  
                               _main 00FC                                 fsr0h 0005  
                               fsr1h 0007                                 fsr0l 0004  
                               indf1 0001                                 fsr1l 0006  
                               btemp 007E                        __CFG_BOREN$ON 0000  
                               ltemp 007E                                 start 0015  
                               ttemp 007E                                 wtemp 007E  
                        _zero_length 0144       __size_of_OSCILLATOR_Initialize 0006  
           __end_ofi1_TMR1_StopTimer 017C        __end_of_OSCILLATOR_Initialize 0172  
                              ?_main 0070                        __CFG_WDTE$OFF 0000  
                    _TMR1_StartTimer 0176                                _T1CON 0018  
                              i1l100 000C                                i1l104 0013  
                              i1l954 0137                                _RCSTA 019D  
                              u30_25 0083                                u31_25 0092  
                              u32_24 00A0                                u32_25 009F  
                              _TMR1H 0017                                u33_25 00B4  
                              _TMR1L 0016                                u34_25 00C3  
                              u27_25 0048                                u28_25 0057  
                              _TRISA 008C                                _TRISC 008E  
                              _TXSTA 019E                     __end_of_TMR1_ISR 011F  
                   _prev_timer_value 0024              __end_of_PIN_MANAGER_IOC 00E3  
            __end_of_TMR1_Initialize 012E                                ltemp0 007E  
                              ltemp1 0082                                ltemp2 0086  
                              ltemp3 0080                                ttemp0 007E  
                              ttemp1 0081                                ttemp2 0084  
                              ttemp3 0087                                ttemp4 007F  
                              status 0003                                wtemp0 007E  
                              wtemp1 0080                                wtemp2 0082  
                              wtemp3 0084                                wtemp4 0086  
                              wtemp5 0088                                wtemp6 007F  
                    _TMR1_WriteTimer 012E                       __CFG_MCLRE$OFF 0000  
                    __initialization 0016                         __end_of_main 010F  
        ?_INTERRUPT_InterruptManager 0070                               ??_main 002B  
                     __CFG_PLLEN$OFF 0000                               _APFCON 011D  
                             _ANSELA 018C                               _ANSELC 018E  
                             _T1GCON 0019                               _IOCAF2 1C9A  
                             _IOCAN2 1C92                               i1l1016 005F  
                             i1l1026 00A4                               i1l1034 00C5  
            TMR1_WriteTimer@timerVal 0070                               i1l1028 00A6  
                             i1l1054 00DF                               i1l1038 00C6  
                             i1l1056 00E0                               _OSCCON 0099  
                             _SPBRGH 019C                               _SPBRGL 019B  
                     __CFG_PWRTE$OFF 0000              __end_of_TMR1_StartTimer 0179  
                     __CFG_STVREN$ON 0000                     ?_PIN_MANAGER_IOC 0070  
            __end_of_TMR1_WriteTimer 013C                __end_of_TMR1_CallBack 0180  
                   ?_TMR1_Initialize 0070                    _SYSTEM_Initialize 0172  
            __end_of__initialization 0020                   ?_SYSTEM_Initialize 0070  
                     __pcstackCOMMON 0070                  ??_SYSTEM_Initialize 0027  
                          ?_TMR1_ISR 0070                       _OPTION_REGbits 0095  
                  ?i1_TMR1_ReadTimer 0070              __size_of_TMR1_ReadTimer 000C  
                 ??i1_TMR1_ReadTimer 0072            __end_of_SYSTEM_Initialize 0176  
                         __pbssBANK0 0020                           __pmaintext 00FC  
                   ?_TMR1_StartTimer 0070                           ??_TMR1_ISR 0070  
                         __pintentry 0004                           _bit_number 007D  
                            _BAUDCON 019F                    ?i1_TMR1_StopTimer 0070  
            __size_of_TMR1_StopTimer 0002                   ??i1_TMR1_StopTimer 0070  
                            _OSCSTAT 009A                              _OSCTUNE 0098  
                   ?_TMR1_WriteTimer 0070                              __ptext1 0148  
                            __ptext2 017C                              __ptext3 0172  
                            __ptext4 011F                              __ptext5 0176  
                            __ptext6 00E3                              __ptext7 016C  
                            __ptext8 0154                            _T1CONbits 0018  
              _OSCILLATOR_Initialize 016C             ??_PIN_MANAGER_Initialize 0027  
                      _buzzer_enable 0026                           _one_length 013C  
         __size_of_SYSTEM_Initialize 0004                 end_of_initialization 0020  
                  _EUSART_Initialize 0154                   ?_EUSART_Initialize 0070  
                       __pstringtext 013C                  ??_EUSART_Initialize 0027  
                   __CFG_FOSC$INTOSC 0000                       _TMR1_ReadTimer 0148  
          __end_of_EUSART_Initialize 0160                    __size_of_TMR1_ISR 0010  
                     _TMR1_StopTimer 017C               ?_OSCILLATOR_Initialize 0070  
             __end_of_TMR1_ReadTimer 0154                  start_initialization 0016  
    __size_of_PIN_MANAGER_Initialize 0019            __size_ofi1_TMR1_ReadTimer 000C  
           __size_of_PIN_MANAGER_IOC 00C0             __size_of_TMR1_Initialize 000F  
             __end_of_TMR1_StopTimer 017E               __size_of_TMR1_CallBack 0002  
                    ?_TMR1_ReadTimer 0027                TMR1_ISR@CountCallBack 007B  
                        __pbssCOMMON 007B                            ___latbits 0000  
                      __pcstackBANK0 0027            __size_ofi1_TMR1_StopTimer 0003  
         __size_of_EUSART_Initialize 000C                            __pnvBANK0 002D  
            i1TMR1_ReadTimer@readVal 0072               _PIN_MANAGER_Initialize 00E3  
                    ?_TMR1_StopTimer 0070                    i1_TMR1_StartTimer 0180  
       ??_INTERRUPT_InterruptManager 007B                   ?i1_TMR1_StartTimer 0070  
           __size_of_TMR1_StartTimer 0003                  ??i1_TMR1_StartTimer 0070  
                      _TMR1_CallBack 017E                             _PIE1bits 0091  
           __size_of_TMR1_WriteTimer 000E  __size_of_INTERRUPT_InterruptManager 0011  
                           _PIR1bits 0011            __end_ofi1_TMR1_StartTimer 0182  
                           _TMR1_ISR 010F                    ??_PIN_MANAGER_IOC 0074  
                  ??_TMR1_Initialize 0027                 PIN_MANAGER_IOC@delta 0079  
               PIN_MANAGER_IOC@index 0076                       ?_TMR1_CallBack 0070  
                   i1_TMR1_ReadTimer 0160                TMR1_ReadTimer@readVal 0029  
            ??_OSCILLATOR_Initialize 0027                             __ptext10 010F  
                           __ptext11 017E                             __ptext12 0023  
                           __ptext13 0160                             __ptext14 0179  
                           __ptext15 0180                             __ptext16 012E  
                  ??_TMR1_StartTimer 0027                     i1_TMR1_StopTimer 0179  
                      __size_of_main 0013           __size_ofi1_TMR1_StartTimer 0002  
                   ??_TMR1_ReadTimer 0029                             int$flags 007E  
 __end_of_INTERRUPT_InterruptManager 0015           _INTERRUPT_InterruptManager 0004  
                  ??_TMR1_WriteTimer 0072                   __end_of_one_length 0140  
                PIN_MANAGER_IOC@time 0077                           _INTCONbits 000B  
                    ??_TMR1_CallBack 0070                  __end_of_start_pulse 0144  
                           intlevel1 0000              ?_PIN_MANAGER_Initialize 0070  
                  __CFG_CLKOUTEN$OFF 0000                     ??_TMR1_StopTimer 0027  
                __end_of_zero_length 0148       __end_of_PIN_MANAGER_Initialize 00FC  
                    _PIN_MANAGER_IOC 0023                      _TMR1_Initialize 011F  
