

Microchip Technology PIC LITE Macro Assembler V1.36 build -262312587 
                                                                                               Fri Feb 19 23:30:05 2016

Microchip Technology Omniscient Code Generator v1.36 (Free mode) build 201601150325
     1                           	processor	16F628A
     2                           	opt	pw 120
     3                           	opt	lm
     4                           	psect	idataBANK0,global,class=CODE,delta=2
     5                           	psect	strings,global,class=STRING,delta=2
     6                           	psect	cinit,global,class=CODE,merge=1,delta=2
     7                           	psect	dataBANK0,global,class=BANK0,space=1,delta=1
     8                           	psect	cstackCOMMON,global,class=COMMON,space=1,delta=1
     9                           	psect	maintext,global,class=CODE,split=1,delta=2
    10                           	psect	text1,local,class=CODE,merge=1,delta=2
    11                           	psect	text2,local,class=CODE,merge=1,delta=2
    12                           	psect	text3,local,class=CODE,merge=1,delta=2
    13                           	dabs	1,0x7E,2
    14  0000                     	;# 
    15  0001                     	;# 
    16  0002                     	;# 
    17  0003                     	;# 
    18  0004                     	;# 
    19  0005                     	;# 
    20  0006                     	;# 
    21  000A                     	;# 
    22  000B                     	;# 
    23  000C                     	;# 
    24  000E                     	;# 
    25  000E                     	;# 
    26  000F                     	;# 
    27  0010                     	;# 
    28  0011                     	;# 
    29  0012                     	;# 
    30  0015                     	;# 
    31  0015                     	;# 
    32  0016                     	;# 
    33  0017                     	;# 
    34  0018                     	;# 
    35  0019                     	;# 
    36  001A                     	;# 
    37  001F                     	;# 
    38  0081                     	;# 
    39  0085                     	;# 
    40  0086                     	;# 
    41  008C                     	;# 
    42  008E                     	;# 
    43  0092                     	;# 
    44  0098                     	;# 
    45  0099                     	;# 
    46  009A                     	;# 
    47  009B                     	;# 
    48  009C                     	;# 
    49  009D                     	;# 
    50  009F                     	;# 
    51                           
    52                           	psect	idataBANK0
    53  06D3                     __pidataBANK0:	
    54                           
    55                           ;initializer for random@seed
    56  06D3  3455               	retlw	85
    57  06D4  347E               	retlw	126
    58                           
    59                           	psect	strings
    60  0001                     __pstrings:	
    61  0001                     stringtab:	
    62  0001                     __stringtab:	
    63  0001                     stringcode:	
    64                           ;	String table - string pointers are 1 byte each
    65                           
    66  0001                     stringdir:	
    67  0001  3000               	movlw	high stringdir
    68  0002  008A               	movwf	10
    69  0003  0804               	movf	4,w
    70  0004  0A84               	incf	4,f
    71  0005  0782               	addwf	2,f
    72  0006                     __stringbase:	
    73  0006  3400               	retlw	0
    74  0007                     __end_of__stringtab:	
    75  0007                     _STEPS_DROP:	
    76  0007  3400               	retlw	0
    77  0008  3401               	retlw	1
    78  0009  3404               	retlw	4
    79  000A  3410               	retlw	16
    80  000B  3402               	retlw	2
    81  000C  3404               	retlw	4
    82  000D  3408               	retlw	8
    83  000E  3404               	retlw	4
    84  000F  3404               	retlw	4
    85  0010  3404               	retlw	4
    86  0011  3408               	retlw	8
    87  0012  3404               	retlw	4
    88  0013  3402               	retlw	2
    89  0014  3410               	retlw	16
    90  0015  3404               	retlw	4
    91  0016  3401               	retlw	1
    92  0017  3420               	retlw	32
    93  0018  3404               	retlw	4
    94  0019  3480               	retlw	128
    95  001A  3440               	retlw	64
    96  001B  3404               	retlw	4
    97  001C  3440               	retlw	64
    98  001D  3400               	retlw	0
    99  001E  3404               	retlw	4
   100  001F  3440               	retlw	64
   101  0020  3401               	retlw	1
   102  0021  3404               	retlw	4
   103  0022  3450               	retlw	80
   104  0023  3402               	retlw	2
   105  0024  3404               	retlw	4
   106  0025  3448               	retlw	72
   107  0026  3404               	retlw	4
   108  0027  3404               	retlw	4
   109  0028  3444               	retlw	68
   110  0029  3408               	retlw	8
   111  002A  3404               	retlw	4
   112  002B  3442               	retlw	66
   113  002C  3410               	retlw	16
   114  002D  3404               	retlw	4
   115  002E  3441               	retlw	65
   116  002F  3420               	retlw	32
   117  0030  3404               	retlw	4
   118  0031  34C0               	retlw	192
   119  0032  3440               	retlw	64
   120  0033  3404               	retlw	4
   121  0034  34C0               	retlw	192
   122  0035  3441               	retlw	65
   123  0036  3404               	retlw	4
   124  0037  34D0               	retlw	208
   125  0038  3442               	retlw	66
   126  0039  3404               	retlw	4
   127  003A  34C8               	retlw	200
   128  003B  3444               	retlw	68
   129  003C  3404               	retlw	4
   130  003D  34C4               	retlw	196
   131  003E  3448               	retlw	72
   132  003F  3404               	retlw	4
   133  0040  34C2               	retlw	194
   134  0041  3450               	retlw	80
   135  0042  3404               	retlw	4
   136  0043  34C1               	retlw	193
   137  0044  3460               	retlw	96
   138  0045  3404               	retlw	4
   139  0046  34C1               	retlw	193
   140  0047  3461               	retlw	97
   141  0048  3404               	retlw	4
   142  0049  34D1               	retlw	209
   143  004A  3462               	retlw	98
   144  004B  3404               	retlw	4
   145  004C  34C9               	retlw	201
   146  004D  3464               	retlw	100
   147  004E  3404               	retlw	4
   148  004F  34C5               	retlw	197
   149  0050  3468               	retlw	104
   150  0051  3404               	retlw	4
   151  0052  34C3               	retlw	195
   152  0053  3470               	retlw	112
   153  0054  3404               	retlw	4
   154  0055  34C3               	retlw	195
   155  0056  3471               	retlw	113
   156  0057  3404               	retlw	4
   157  0058  34D3               	retlw	211
   158  0059  3472               	retlw	114
   159  005A  3404               	retlw	4
   160  005B  34CB               	retlw	203
   161  005C  3474               	retlw	116
   162  005D  3404               	retlw	4
   163  005E  34C7               	retlw	199
   164  005F  3478               	retlw	120
   165  0060  3404               	retlw	4
   166  0061  34C7               	retlw	199
   167  0062  3479               	retlw	121
   168  0063  3404               	retlw	4
   169  0064  34D7               	retlw	215
   170  0065  347A               	retlw	122
   171  0066  3404               	retlw	4
   172  0067  34CF               	retlw	207
   173  0068  347C               	retlw	124
   174  0069  3404               	retlw	4
   175  006A  34CF               	retlw	207
   176  006B  347D               	retlw	125
   177  006C  3404               	retlw	4
   178  006D  34DF               	retlw	223
   179  006E  347E               	retlw	126
   180  006F  3404               	retlw	4
   181  0070  34DF               	retlw	223
   182  0071  347F               	retlw	127
   183  0072  3404               	retlw	4
   184  0073                     __end_of_STEPS_DROP:	
   185  0073                     _STEPS_VSHIFT:	
   186  0073  3440               	retlw	64
   187  0074  3400               	retlw	0
   188  0075  3402               	retlw	2
   189  0076  34C0               	retlw	192
   190  0077  3440               	retlw	64
   191  0078  3402               	retlw	2
   192  0079  34C1               	retlw	193
   193  007A  3460               	retlw	96
   194  007B  3402               	retlw	2
   195  007C  34C3               	retlw	195
   196  007D  3470               	retlw	112
   197  007E  3402               	retlw	2
   198  007F  34C7               	retlw	199
   199  0080  3478               	retlw	120
   200  0081  3402               	retlw	2
   201  0082  34CF               	retlw	207
   202  0083  347C               	retlw	124
   203  0084  3402               	retlw	2
   204  0085  34DF               	retlw	223
   205  0086  347E               	retlw	126
   206  0087  3402               	retlw	2
   207  0088  34DF               	retlw	223
   208  0089  347F               	retlw	127
   209  008A  3402               	retlw	2
   210  008B  349F               	retlw	159
   211  008C  347F               	retlw	127
   212  008D  3402               	retlw	2
   213  008E  341F               	retlw	31
   214  008F  343F               	retlw	63
   215  0090  3402               	retlw	2
   216  0091  341E               	retlw	30
   217  0092  341F               	retlw	31
   218  0093  3402               	retlw	2
   219  0094  341C               	retlw	28
   220  0095  340F               	retlw	15
   221  0096  3402               	retlw	2
   222  0097  3418               	retlw	24
   223  0098  3407               	retlw	7
   224  0099  3402               	retlw	2
   225  009A  3410               	retlw	16
   226  009B  3403               	retlw	3
   227  009C  3402               	retlw	2
   228  009D  3400               	retlw	0
   229  009E  3401               	retlw	1
   230  009F  3402               	retlw	2
   231  00A0                     __end_of_STEPS_VSHIFT:	
   232  00A0                     _STEPS_INIT:	
   233  00A0  34FF               	retlw	255
   234  00A1  34FF               	retlw	255
   235  00A2  340A               	retlw	10
   236  00A3  3400               	retlw	0
   237  00A4  3400               	retlw	0
   238  00A5  340A               	retlw	10
   239  00A6                     __end_of_STEPS_INIT:	
   240  0005                     _PORTA	set	5
   241  0006                     _PORTB	set	6
   242  0010                     _T1CON	set	16
   243  000E                     _TMR1L	set	14
   244  0080                     _TMR1ON	set	128
   245  0085                     _TRISA	set	133
   246  0086                     _TRISB	set	134
   247                           
   248                           ; #config settings
   249  0000                     
   250                           	psect	cinit
   251  07F8                     start_initialization:	
   252  07F8                     __initialization:	
   253                           
   254                           ; Initialize objects allocated to BANK0
   255  07F8  1283               	bcf	3,5	;RP0=0, select bank0
   256  07F9  1303               	bcf	3,6	;RP1=0, select bank0
   257  07FA  26D3               	fcall	__pidataBANK0	;fetch initializer
   258  07FB  00A0               	movwf	__pdataBANK0& (0+127)
   259  07FC  26D4               	fcall	__pidataBANK0+1	;fetch initializer
   260  07FD  00A1               	movwf	(__pdataBANK0+1)& (0+127)
   261  07FE                     end_of_initialization:	
   262                           ;End of C runtime variable initialization code
   263                           
   264  07FE                     __end_of__initialization:	
   265  07FE  0183               	clrf	3
   266  07FF  2EE5               	ljmp	_main	;jump to C main() function
   267                           
   268                           	psect	dataBANK0
   269  0020                     __pdataBANK0:	
   270  0020                     random@seed:	
   271  0020                     	ds	2
   272                           
   273                           	psect	cstackCOMMON
   274  0070                     __pcstackCOMMON:	
   275  0070                     ?_wait_hms:	
   276  0070                     ??_wait_hms:	
   277                           ; 1 bytes @ 0x0
   278                           
   279  0070                     ?_play_smooth:	
   280                           ; 1 bytes @ 0x0
   281                           
   282  0070                     ??_play_smooth:	
   283                           ; 1 bytes @ 0x0
   284                           
   285  0070                     ?_main:	
   286                           ; 1 bytes @ 0x0
   287                           
   288                           
   289                           ; 2 bytes @ 0x0
   290  0070                     	ds	1
   291  0071                     play_smooth@turns:	
   292                           
   293                           ; 1 bytes @ 0x1
   294  0071                     	ds	1
   295  0072                     wait_hms@count:	
   296  0072                     _play_smooth$62:	
   297                           ; 1 bytes @ 0x2
   298                           
   299                           
   300                           ; 2 bytes @ 0x2
   301  0072                     	ds	1
   302  0073                     ?_play:	
   303  0073                     play@bytes_count:	
   304                           ; 1 bytes @ 0x3
   305                           
   306                           
   307                           ; 1 bytes @ 0x3
   308  0073                     	ds	1
   309  0074                     play@turns:	
   310  0074                     play_smooth@i:	
   311                           ; 2 bytes @ 0x4
   312                           
   313                           
   314                           ; 2 bytes @ 0x4
   315  0074                     	ds	2
   316  0076                     play@reversed:	
   317  0076                     play_smooth@j:	
   318                           ; 1 bytes @ 0x6
   319                           
   320                           
   321                           ; 2 bytes @ 0x6
   322  0076                     	ds	1
   323  0077                     ??_play:	
   324                           
   325                           ; 1 bytes @ 0x7
   326  0077                     	ds	1
   327  0078                     play_smooth@port:	
   328  0078                     play@i:	
   329                           ; 1 bytes @ 0x8
   330                           
   331                           
   332                           ; 2 bytes @ 0x8
   333  0078                     	ds	1
   334  0079                     play_smooth@inc:	
   335                           
   336                           ; 1 bytes @ 0x9
   337  0079                     	ds	1
   338  007A                     play_smooth@value:	
   339  007A                     play@i_46:	
   340                           ; 1 bytes @ 0xA
   341                           
   342                           
   343                           ; 2 bytes @ 0xA
   344  007A                     	ds	2
   345  007C                     play@fx:	
   346                           
   347                           ; 1 bytes @ 0xC
   348  007C                     	ds	1
   349  007D                     ??_main:	
   350                           
   351                           ; 1 bytes @ 0xD
   352  007D                     	ds	1
   353                           
   354                           	psect	maintext
   355  06E5                     __pmaintext:	
   356 ;;
   357 ;;Main: autosize = 0, tempsize = 1, incstack = 0, save=0
   358 ;;
   359 ;; *************** function _main *****************
   360 ;; Defined at:
   361 ;;		line 215 in file "main.c"
   362 ;; Parameters:    Size  Location     Type
   363 ;;		None
   364 ;; Auto vars:     Size  Location     Type
   365 ;;		None
   366 ;; Return value:  Size  Location     Type
   367 ;;                  2   83[None  ] int 
   368 ;; Registers used:
   369 ;;		wreg, fsr0l, fsr0h, status,2, status,0, btemp+1, pclath, cstack
   370 ;; Tracked objects:
   371 ;;		On entry : B00/0
   372 ;;		On exit  : 0/0
   373 ;;		Unchanged: 0/0
   374 ;; Data sizes:     COMMON   BANK0   BANK1   BANK2
   375 ;;      Params:         0       0       0       0
   376 ;;      Locals:         0       0       0       0
   377 ;;      Temps:          1       0       0       0
   378 ;;      Totals:         1       0       0       0
   379 ;;Total ram usage:        1 bytes
   380 ;; Hardware stack levels required when called:    2
   381 ;; This function calls:
   382 ;;		_play
   383 ;;		_play_smooth
   384 ;; This function is called by:
   385 ;;		Startup code after reset
   386 ;; This function uses a non-reentrant model
   387 ;;
   388                           
   389                           
   390                           ;psect for function _main
   391  06E5                     _main:	
   392                           
   393                           ;main.c: 216: TRISA = 0;
   394                           
   395                           ;incstack = 0
   396                           ; Regs used in _main: [wreg-fsr0h+status,2+status,0+btemp+1+pclath+cstack]
   397  06E5  1683               	bsf	3,5	;RP0=1, select bank1
   398  06E6  1303               	bcf	3,6	;RP1=0, select bank1
   399  06E7  0185               	clrf	5	;volatile
   400                           
   401                           ;main.c: 217: TRISB = 0;
   402  06E8  0186               	clrf	6	;volatile
   403                           
   404                           ;main.c: 221: play(STEPS_INIT, sizeof (STEPS_INIT), 3, 0);
   405  06E9  3006               	movlw	6
   406  06EA  00FD               	movwf	??_main
   407  06EB  087D               	movf	??_main,w
   408  06EC  00F3               	movwf	play@bytes_count
   409  06ED  3003               	movlw	3
   410  06EE  00F4               	movwf	play@turns
   411  06EF  3000               	movlw	0
   412  06F0  00F5               	movwf	play@turns+1
   413  06F1  01F6               	clrf	play@reversed
   414  06F2  309A               	movlw	(low ((_STEPS_INIT-__stringbase)| (0+32768)))& (0+255)
   415  06F3  2725               	fcall	_play
   416  06F4                     l795:	
   417                           ;main.c: 222: while (1) {
   418                           
   419                           
   420                           ;main.c: 224: play(STEPS_DROP, sizeof (STEPS_DROP), 1, 0);
   421  06F4  306C               	movlw	108
   422  06F5  00FD               	movwf	??_main
   423  06F6  087D               	movf	??_main,w
   424  06F7  00F3               	movwf	play@bytes_count
   425  06F8  3001               	movlw	1
   426  06F9  00F4               	movwf	play@turns
   427  06FA  3000               	movlw	0
   428  06FB  00F5               	movwf	play@turns+1
   429  06FC  01F6               	clrf	play@reversed
   430  06FD  3001               	movlw	(low ((_STEPS_DROP-__stringbase)| (0+32768)))& (0+255)
   431  06FE  2725               	fcall	_play
   432                           
   433                           ;main.c: 225: play(STEPS_DROP, sizeof (STEPS_DROP), 1, 1);
   434  06FF  306C               	movlw	108
   435  0700  00FD               	movwf	??_main
   436  0701  087D               	movf	??_main,w
   437  0702  00F3               	movwf	play@bytes_count
   438  0703  3001               	movlw	1
   439  0704  00F4               	movwf	play@turns
   440  0705  3000               	movlw	0
   441  0706  00F5               	movwf	play@turns+1
   442  0707  01F6               	clrf	play@reversed
   443  0708  0AF6               	incf	play@reversed,f
   444  0709  3001               	movlw	(low ((_STEPS_DROP-__stringbase)| (0+32768)))& (0+255)
   445  070A  2725               	fcall	_play
   446                           
   447                           ;main.c: 226: play(STEPS_VSHIFT, sizeof (STEPS_VSHIFT), 10, 0);
   448  070B  302D               	movlw	45
   449  070C  00FD               	movwf	??_main
   450  070D  087D               	movf	??_main,w
   451  070E  00F3               	movwf	play@bytes_count
   452  070F  300A               	movlw	10
   453  0710  00F4               	movwf	play@turns
   454  0711  3000               	movlw	0
   455  0712  00F5               	movwf	play@turns+1
   456  0713  01F6               	clrf	play@reversed
   457  0714  306D               	movlw	(low ((_STEPS_VSHIFT-__stringbase)| (0+32768)))& (0+255)
   458  0715  2725               	fcall	_play
   459                           
   460                           ;main.c: 227: play(STEPS_VSHIFT, sizeof (STEPS_VSHIFT), 10, 1);
   461  0716  302D               	movlw	45
   462  0717  00FD               	movwf	??_main
   463  0718  087D               	movf	??_main,w
   464  0719  00F3               	movwf	play@bytes_count
   465  071A  300A               	movlw	10
   466  071B  00F4               	movwf	play@turns
   467  071C  3000               	movlw	0
   468  071D  00F5               	movwf	play@turns+1
   469  071E  01F6               	clrf	play@reversed
   470  071F  0AF6               	incf	play@reversed,f
   471  0720  306D               	movlw	(low ((_STEPS_VSHIFT-__stringbase)| (0+32768)))& (0+255)
   472  0721  2725               	fcall	_play
   473                           
   474                           ;main.c: 228: play_smooth(14);
   475  0722  300E               	movlw	14
   476  0723  277E               	fcall	_play_smooth
   477  0724  2EF4               	goto	l795
   478  0725                     __end_of_main:	
   479                           ;main.c: 230: }
   480                           ;main.c: 231: return 0;
   481                           ;	Return value of _main is never used
   482                           
   483                           
   484                           	psect	text1
   485  077E                     __ptext1:	
   486 ;; *************** function _play_smooth *****************
   487 ;; Defined at:
   488 ;;		line 159 in file "main.c"
   489 ;; Parameters:    Size  Location     Type
   490 ;;  turns           1    wreg     unsigned char 
   491 ;; Auto vars:     Size  Location     Type
   492 ;;  turns           1    1[COMMON] unsigned char 
   493 ;;  j               2    6[COMMON] int 
   494 ;;  i               2    4[COMMON] int 
   495 ;;  value           1   10[COMMON] unsigned char 
   496 ;;  inc             1    9[COMMON] char 
   497 ;;  port            1    8[COMMON] unsigned char 
   498 ;; Return value:  Size  Location     Type
   499 ;;                  1    wreg      void 
   500 ;; Registers used:
   501 ;;		wreg, status,2, status,0, btemp+1
   502 ;; Tracked objects:
   503 ;;		On entry : 0/0
   504 ;;		On exit  : 0/0
   505 ;;		Unchanged: 0/0
   506 ;; Data sizes:     COMMON   BANK0   BANK1   BANK2
   507 ;;      Params:         0       0       0       0
   508 ;;      Locals:        10       0       0       0
   509 ;;      Temps:          1       0       0       0
   510 ;;      Totals:        11       0       0       0
   511 ;;Total ram usage:       11 bytes
   512 ;; Hardware stack levels used:    1
   513 ;; This function calls:
   514 ;;		Nothing
   515 ;; This function is called by:
   516 ;;		_main
   517 ;; This function uses a non-reentrant model
   518 ;;
   519                           
   520                           
   521                           ;psect for function _play_smooth
   522  077E                     _play_smooth:	
   523                           
   524                           ;incstack = 0
   525                           ; Regs used in _play_smooth: [wreg+status,2+status,0+btemp+1]
   526                           ;play_smooth@turns stored from wreg
   527  077E  00F1               	movwf	play_smooth@turns
   528                           
   529                           ;main.c: 160: unsigned char value = 5, port = 0;
   530  077F  3005               	movlw	5
   531  0780  00F0               	movwf	??_play_smooth
   532  0781  0870               	movf	??_play_smooth,w
   533  0782  00FA               	movwf	play_smooth@value
   534  0783  01F8               	clrf	play_smooth@port
   535                           
   536                           ;main.c: 161: signed char inc = 1;
   537  0784  01F9               	clrf	play_smooth@inc
   538  0785  0AF9               	incf	play_smooth@inc,f
   539                           
   540                           ;main.c: 162: int i = 0, j = 0;
   541  0786  01F4               	clrf	play_smooth@i
   542  0787  01F5               	clrf	play_smooth@i+1
   543  0788  01F6               	clrf	play_smooth@j
   544  0789  01F7               	clrf	play_smooth@j+1
   545                           
   546                           ;main.c: 165: T1CON = 0b00100000;
   547  078A  3020               	movlw	32
   548  078B  1283               	bcf	3,5	;RP0=0, select bank0
   549  078C  1303               	bcf	3,6	;RP1=0, select bank0
   550  078D  0090               	movwf	16	;volatile
   551                           
   552                           ;main.c: 166: TMR1ON = 1;
   553  078E  1410               	bsf	16,0	;volatile
   554  078F                     l733:	
   555                           ;main.c: 167: while(1)
   556                           
   557                           
   558                           ;main.c: 168: {
   559                           ;main.c: 169: i++;
   560  078F  3001               	movlw	1
   561  0790  07F4               	addwf	play_smooth@i,f
   562  0791  1803               	skipnc
   563  0792  0AF5               	incf	play_smooth@i+1,f
   564  0793  3000               	movlw	0
   565  0794  07F5               	addwf	play_smooth@i+1,f
   566                           
   567                           ;main.c: 170: if(i > 500)
   568  0795  0875               	movf	play_smooth@i+1,w
   569  0796  3A80               	xorlw	128
   570  0797  00FF               	movwf	127
   571  0798  3081               	movlw	129
   572  0799  027F               	subwf	127,w
   573  079A  1D03               	skipz
   574  079B  2F9E               	goto	u305
   575  079C  30F5               	movlw	245
   576  079D  0274               	subwf	play_smooth@i,w
   577  079E                     u305:	
   578  079E  1C03               	skipc
   579  079F  2FE2               	goto	l773
   580                           
   581                           ;main.c: 171: {
   582                           ;main.c: 172: i=0;
   583  07A0  01F4               	clrf	play_smooth@i
   584  07A1  01F5               	clrf	play_smooth@i+1
   585                           
   586                           ;main.c: 173: value += inc;
   587  07A2  0879               	movf	play_smooth@inc,w
   588  07A3  00F0               	movwf	??_play_smooth
   589  07A4  0870               	movf	??_play_smooth,w
   590  07A5  07FA               	addwf	play_smooth@value,f
   591                           
   592                           ;main.c: 174: if(value < 8)
   593  07A6  3008               	movlw	8
   594  07A7  027A               	subwf	play_smooth@value,w
   595  07A8  1803               	skipnc
   596  07A9  2FC7               	goto	l757
   597                           
   598                           ;main.c: 175: {
   599                           ;main.c: 176: j++;
   600  07AA  3001               	movlw	1
   601  07AB  07F6               	addwf	play_smooth@j,f
   602  07AC  1803               	skipnc
   603  07AD  0AF7               	incf	play_smooth@j+1,f
   604  07AE  3000               	movlw	0
   605  07AF  07F7               	addwf	play_smooth@j+1,f
   606                           
   607                           ;main.c: 177: if(j < 300)
   608  07B0  0877               	movf	play_smooth@j+1,w
   609  07B1  3A80               	xorlw	128
   610  07B2  00FF               	movwf	127
   611  07B3  3081               	movlw	129
   612  07B4  027F               	subwf	127,w
   613  07B5  1D03               	skipz
   614  07B6  2FB9               	goto	u325
   615  07B7  302C               	movlw	44
   616  07B8  0276               	subwf	play_smooth@j,w
   617  07B9                     u325:	
   618  07B9  1803               	skipnc
   619  07BA  2FBD               	goto	l749
   620                           
   621                           ;main.c: 178: {
   622                           ;main.c: 179: inc = 0;
   623  07BB  01F9               	clrf	play_smooth@inc
   624                           
   625                           ;main.c: 180: }
   626  07BC  2FE2               	goto	l773
   627  07BD                     l749:	
   628                           
   629                           ;main.c: 181: else
   630                           ;main.c: 182: {
   631                           ;main.c: 183: j=0;
   632  07BD  01F6               	clrf	play_smooth@j
   633  07BE  01F7               	clrf	play_smooth@j+1
   634                           
   635                           ;main.c: 184: inc = 1;
   636  07BF  01F9               	clrf	play_smooth@inc
   637  07C0  0AF9               	incf	play_smooth@inc,f
   638                           
   639                           ;main.c: 186: if(!(turns--))
   640  07C1  3001               	movlw	1
   641  07C2  02F1               	subwf	play_smooth@turns,f
   642  07C3  0A71               	incf	play_smooth@turns,w
   643  07C4  1903               	btfsc	3,2
   644  07C5  0008               	return
   645  07C6  2FE2               	goto	l773
   646  07C7                     l757:	
   647                           ;main.c: 189: }
   648                           ;main.c: 190: }
   649                           ;main.c: 192: }
   650                           
   651                           ;main.c: 187: {
   652                           ;main.c: 188: break;
   653                           
   654                           
   655                           ;main.c: 193: else if(value > 250)
   656  07C7  30FB               	movlw	251
   657  07C8  027A               	subwf	play_smooth@value,w
   658  07C9  1C03               	skipc
   659  07CA  2FCD               	goto	l761
   660                           
   661                           ;main.c: 194: {
   662                           ;main.c: 195: inc = -3;
   663  07CB  30FD               	movlw	253
   664  07CC  2FD7               	goto	L1
   665  07CD                     l761:	
   666                           ;main.c: 196: }
   667                           
   668                           
   669                           ;main.c: 197: else if(value > 130 && inc > 0)
   670  07CD  3083               	movlw	131
   671  07CE  027A               	subwf	play_smooth@value,w
   672  07CF  1C03               	skipc
   673  07D0  2FDB               	goto	l767
   674  07D1  0879               	movf	play_smooth@inc,w
   675  07D2  3A80               	xorlw	128
   676  07D3  3E7F               	addlw	-129
   677  07D4  1C03               	skipc
   678  07D5  2FDB               	goto	l767
   679                           
   680                           ;main.c: 198: {
   681                           ;main.c: 199: inc = 3;
   682  07D6  3003               	movlw	3
   683  07D7                     L1:	
   684  07D7  00F0               	movwf	??_play_smooth
   685  07D8  0870               	movf	??_play_smooth,w
   686  07D9  00F9               	movwf	play_smooth@inc
   687                           
   688                           ;main.c: 200: }
   689  07DA  2FE2               	goto	l773
   690  07DB                     l767:	
   691                           
   692                           ;main.c: 201: else if(value < 130 && inc < 0)
   693  07DB  3082               	movlw	130
   694  07DC  027A               	subwf	play_smooth@value,w
   695  07DD  1C03               	btfss	3,0
   696  07DE  1FF9               	btfss	play_smooth@inc,7
   697  07DF  2FE2               	goto	l773
   698                           
   699                           ;main.c: 202: {
   700                           ;main.c: 203: inc = -1;
   701  07E0  01F9               	clrf	play_smooth@inc
   702  07E1  03F9               	decf	play_smooth@inc,f
   703  07E2                     l773:	
   704                           
   705                           ;main.c: 204: }
   706                           ;main.c: 206: }
   707                           ;main.c: 208: port = TMR1L < value ? 0xFF : 0;
   708  07E2  087A               	movf	play_smooth@value,w
   709  07E3  1283               	bcf	3,5	;RP0=0, select bank0
   710  07E4  1303               	bcf	3,6	;RP1=0, select bank0
   711  07E5  020E               	subwf	14,w	;volatile
   712  07E6  1C03               	skipc
   713  07E7  2FEB               	goto	l777
   714  07E8  01F2               	clrf	_play_smooth$62
   715  07E9  01F3               	clrf	_play_smooth$62+1
   716  07EA  2FEF               	goto	l79
   717  07EB                     l777:	
   718  07EB  30FF               	movlw	255
   719  07EC  00F2               	movwf	_play_smooth$62
   720  07ED  3000               	movlw	0
   721  07EE  00F3               	movwf	_play_smooth$62+1
   722  07EF                     l79:	
   723  07EF  0872               	movf	_play_smooth$62,w
   724  07F0  00F0               	movwf	??_play_smooth
   725  07F1  0870               	movf	??_play_smooth,w
   726  07F2  00F8               	movwf	play_smooth@port
   727                           
   728                           ;main.c: 209: PORTB = port;
   729  07F3  0878               	movf	play_smooth@port,w
   730  07F4  0086               	movwf	6	;volatile
   731                           
   732                           ;main.c: 210: PORTA = port;
   733  07F5  0878               	movf	play_smooth@port,w
   734  07F6  0085               	movwf	5	;volatile
   735  07F7  2F8F               	goto	l733
   736  07F8                     __end_of_play_smooth:	
   737                           
   738                           	psect	text2
   739  0725                     __ptext2:	
   740 ;; *************** function _play *****************
   741 ;; Defined at:
   742 ;;		line 110 in file "main.c"
   743 ;; Parameters:    Size  Location     Type
   744 ;;  fx              1    wreg     PTR unsigned char 
   745 ;;		 -> STEPS_VSHIFT(45), STEPS_DROP(108), STEPS_INIT(6), 
   746 ;;  bytes_count     1    3[COMMON] unsigned char 
   747 ;;  turns           2    4[COMMON] unsigned int 
   748 ;;  reversed        1    6[COMMON] unsigned char 
   749 ;; Auto vars:     Size  Location     Type
   750 ;;  fx              1   12[COMMON] PTR unsigned char 
   751 ;;		 -> STEPS_VSHIFT(45), STEPS_DROP(108), STEPS_INIT(6), 
   752 ;;  i               2   10[COMMON] int 
   753 ;;  i               2    8[COMMON] int 
   754 ;; Return value:  Size  Location     Type
   755 ;;                  1    wreg      void 
   756 ;; Registers used:
   757 ;;		wreg, fsr0l, fsr0h, status,2, status,0, pclath, cstack
   758 ;; Tracked objects:
   759 ;;		On entry : 0/0
   760 ;;		On exit  : 0/0
   761 ;;		Unchanged: 0/0
   762 ;; Data sizes:     COMMON   BANK0   BANK1   BANK2
   763 ;;      Params:         4       0       0       0
   764 ;;      Locals:         5       0       0       0
   765 ;;      Temps:          1       0       0       0
   766 ;;      Totals:        10       0       0       0
   767 ;;Total ram usage:       10 bytes
   768 ;; Hardware stack levels used:    1
   769 ;; Hardware stack levels required when called:    1
   770 ;; This function calls:
   771 ;;		_wait_hms
   772 ;; This function is called by:
   773 ;;		_main
   774 ;; This function uses a non-reentrant model
   775 ;;
   776                           
   777                           
   778                           ;psect for function _play
   779  0725                     _play:	
   780                           
   781                           ;incstack = 0
   782                           ; Regs used in _play: [wreg-fsr0h+status,2+status,0+pclath+cstack]
   783                           ;play@fx stored from wreg
   784  0725  00FC               	movwf	play@fx
   785  0726                     l717:	
   786                           ;main.c: 111: while (turns--) {
   787                           
   788  0726  3001               	movlw	1
   789  0727  02F4               	subwf	play@turns,f
   790  0728  3000               	movlw	0
   791  0729  1C03               	skipc
   792  072A  03F5               	decf	play@turns+1,f
   793  072B  02F5               	subwf	play@turns+1,f
   794  072C  0A74               	incf	play@turns,w
   795  072D  1903               	btfsc	3,2
   796  072E  0A75               	incf	play@turns+1,w
   797  072F  1903               	btfsc	3,2
   798  0730  0008               	return
   799                           
   800                           ;main.c: 112: if (!reversed) {
   801  0731  0876               	movf	play@reversed,w
   802  0732  1D03               	btfss	3,2
   803  0733  2F5B               	goto	l703
   804                           
   805                           ;main.c: 113: for (int i = 0; i < bytes_count; i += 3) {
   806  0734  01F8               	clrf	play@i
   807  0735  01F9               	clrf	play@i+1
   808  0736                     l701:	
   809  0736  0879               	movf	play@i+1,w
   810  0737  3A80               	xorlw	128
   811  0738  00F7               	movwf	??_play
   812  0739  3080               	movlw	128
   813  073A  0277               	subwf	??_play,w
   814  073B  1D03               	skipz
   815  073C  2F3F               	goto	u265
   816  073D  0873               	movf	play@bytes_count,w
   817  073E  0278               	subwf	play@i,w
   818  073F                     u265:	
   819  073F  1803               	btfsc	3,0
   820  0740  2F26               	goto	l717
   821                           
   822                           ;main.c: 114: PORTA = fx[i];
   823  0741  0878               	movf	play@i,w
   824  0742  077C               	addwf	play@fx,w
   825  0743  0084               	movwf	4
   826  0744  2001               	fcall	stringdir
   827  0745  1283               	bcf	3,5	;RP0=0, select bank0
   828  0746  1303               	bcf	3,6	;RP1=0, select bank0
   829  0747  0085               	movwf	5	;volatile
   830                           
   831                           ;main.c: 115: PORTB = fx[i + 1];
   832  0748  0878               	movf	play@i,w
   833  0749  3E01               	addlw	1
   834  074A  077C               	addwf	play@fx,w
   835  074B  0084               	movwf	4
   836  074C  2001               	fcall	stringdir
   837  074D  0086               	movwf	6	;volatile
   838                           
   839                           ;main.c: 117: wait_hms(fx[i + 2]);
   840  074E  0878               	movf	play@i,w
   841  074F  3E02               	addlw	2
   842  0750  077C               	addwf	play@fx,w
   843  0751  0084               	movwf	4
   844  0752  2001               	fcall	stringdir
   845  0753  26D5               	fcall	_wait_hms
   846  0754  3003               	movlw	3
   847  0755  07F8               	addwf	play@i,f
   848  0756  1803               	skipnc
   849  0757  0AF9               	incf	play@i+1,f
   850  0758  3000               	movlw	0
   851  0759  07F9               	addwf	play@i+1,f
   852  075A  2F36               	goto	l701
   853  075B                     l703:	
   854                           ;main.c: 118: }
   855                           ;main.c: 119: } else {
   856                           
   857                           
   858                           ;main.c: 120: for (int i = bytes_count - 3; i >= 0; i -= 3) {
   859  075B  0873               	movf	play@bytes_count,w
   860  075C  3EFD               	addlw	253
   861  075D  00FA               	movwf	play@i_46
   862  075E  30FF               	movlw	255
   863  075F  1803               	skipnc
   864  0760  3000               	movlw	0
   865  0761  00FB               	movwf	play@i_46+1
   866  0762                     L2:	
   867  0762  1BFB               	btfsc	play@i_46+1,7
   868  0763  2F26               	goto	l717
   869                           
   870                           ;main.c: 121: PORTA = fx[i];
   871  0764  087A               	movf	play@i_46,w
   872  0765  077C               	addwf	play@fx,w
   873  0766  0084               	movwf	4
   874  0767  2001               	fcall	stringdir
   875  0768  1283               	bcf	3,5	;RP0=0, select bank0
   876  0769  1303               	bcf	3,6	;RP1=0, select bank0
   877  076A  0085               	movwf	5	;volatile
   878                           
   879                           ;main.c: 122: PORTB = fx[i + 1];
   880  076B  087A               	movf	play@i_46,w
   881  076C  3E01               	addlw	1
   882  076D  077C               	addwf	play@fx,w
   883  076E  0084               	movwf	4
   884  076F  2001               	fcall	stringdir
   885  0770  0086               	movwf	6	;volatile
   886                           
   887                           ;main.c: 124: wait_hms(fx[i + 2]);
   888  0771  087A               	movf	play@i_46,w
   889  0772  3E02               	addlw	2
   890  0773  077C               	addwf	play@fx,w
   891  0774  0084               	movwf	4
   892  0775  2001               	fcall	stringdir
   893  0776  26D5               	fcall	_wait_hms
   894  0777  30FD               	movlw	253
   895  0778  07FA               	addwf	play@i_46,f
   896  0779  1803               	skipnc
   897  077A  0AFB               	incf	play@i_46+1,f
   898  077B  30FF               	movlw	255
   899  077C  07FB               	addwf	play@i_46+1,f
   900  077D  2F62               	goto	L2
   901  077E                     __end_of_play:	
   902                           
   903                           	psect	text3
   904  06D5                     __ptext3:	
   905 ;; *************** function _wait_hms *****************
   906 ;; Defined at:
   907 ;;		line 104 in file "main.c"
   908 ;; Parameters:    Size  Location     Type
   909 ;;  count           1    wreg     unsigned char 
   910 ;; Auto vars:     Size  Location     Type
   911 ;;  count           1    2[COMMON] unsigned char 
   912 ;; Return value:  Size  Location     Type
   913 ;;                  1    wreg      void 
   914 ;; Registers used:
   915 ;;		wreg, status,2, status,0
   916 ;; Tracked objects:
   917 ;;		On entry : 0/0
   918 ;;		On exit  : 0/0
   919 ;;		Unchanged: 0/0
   920 ;; Data sizes:     COMMON   BANK0   BANK1   BANK2
   921 ;;      Params:         0       0       0       0
   922 ;;      Locals:         1       0       0       0
   923 ;;      Temps:          2       0       0       0
   924 ;;      Totals:         3       0       0       0
   925 ;;Total ram usage:        3 bytes
   926 ;; Hardware stack levels used:    1
   927 ;; This function calls:
   928 ;;		Nothing
   929 ;; This function is called by:
   930 ;;		_play
   931 ;;		_play_random
   932 ;; This function uses a non-reentrant model
   933 ;;
   934                           
   935                           
   936                           ;psect for function _wait_hms
   937  06D5                     _wait_hms:	
   938                           
   939                           ;incstack = 0
   940                           ; Regs used in _wait_hms: [wreg+status,2+status,0]
   941                           ;wait_hms@count stored from wreg
   942  06D5  00F2               	movwf	wait_hms@count
   943  06D6                     l551:	
   944                           ;main.c: 105: while (count--) {
   945                           
   946  06D6  3001               	movlw	1
   947  06D7  02F2               	subwf	wait_hms@count,f
   948  06D8  0A72               	incf	wait_hms@count,w
   949  06D9  1903               	btfsc	3,2
   950  06DA  0008               	return
   951                           
   952                           ;main.c: 106: _delay((unsigned long)((100)*(4000000/4000.0)));
   953  06DB  3082               	movlw	130
   954  06DC  00F1               	movwf	??_wait_hms+1
   955  06DD  30DD               	movlw	221
   956  06DE  00F0               	movwf	??_wait_hms
   957  06DF                     u517:	
   958  06DF  0BF0               	decfsz	??_wait_hms,f
   959  06E0  2EDF               	goto	u517
   960  06E1  0BF1               	decfsz	??_wait_hms+1,f
   961  06E2  2EDF               	goto	u517
   962  06E3  2EE4               	nop2
   963  06E4  2ED6               	goto	l551
   964  06E5                     __end_of_wait_hms:	
   965  007E                     btemp	set	126	;btemp
   966  007E                     wtemp	set	126
   967  007E                     wtemp0	set	126
   968  0080                     wtemp1	set	128
   969  0082                     wtemp2	set	130
   970  0084                     wtemp3	set	132
   971  0086                     wtemp4	set	134
   972  0088                     wtemp5	set	136
   973  007F                     wtemp6	set	127
   974  007E                     ttemp	set	126
   975  007E                     ttemp0	set	126
   976  0081                     ttemp1	set	129
   977  0084                     ttemp2	set	132
   978  0087                     ttemp3	set	135
   979  007F                     ttemp4	set	127
   980  007E                     ltemp	set	126
   981  007E                     ltemp0	set	126
   982  0082                     ltemp1	set	130
   983  0086                     ltemp2	set	134
   984  0080                     ltemp3	set	128


Data Sizes:
    Strings     0
    Constant    159
    Data        2
    BSS         0
    Persistent  0
    Stack       0

Auto Spaces:
    Space          Size  Autos    Used
    COMMON           14     14      14
    BANK0            80      0       2
    BANK1            80      0       0
    BANK2            48      0       0

Pointer List with Targets:

    play@fx	PTR unsigned char  size(1) Largest target is 108
		 -> STEPS_VSHIFT(CODE[45]), STEPS_DROP(CODE[108]), STEPS_INIT(CODE[6]), 


Critical Paths under _main in COMMON

    _main->_play
    _play->_wait_hms

Critical Paths under _main in BANK0

    None.

Critical Paths under _main in BANK1

    None.

Critical Paths under _main in BANK2

    None.

Call Graph Tables:

 ---------------------------------------------------------------------------------
 (Depth) Function   	        Calls       Base Space   Used Autos Params    Refs
 ---------------------------------------------------------------------------------
 (0) _main                                                 1     1      0    1693
                                             13 COMMON     1     1      0
                               _play
                        _play_smooth
 ---------------------------------------------------------------------------------
 (1) _play_smooth                                         11    11      0     326
                                              0 COMMON    11    11      0
 ---------------------------------------------------------------------------------
 (1) _play                                                10     6      4    1367
                                              3 COMMON    10     6      4
                           _wait_hms
 ---------------------------------------------------------------------------------
 (2) _wait_hms                                             3     3      0      15
                                              0 COMMON     3     3      0
 ---------------------------------------------------------------------------------
 Estimated maximum stack depth 2
 ---------------------------------------------------------------------------------

 Call Graph Graphs:

 _main (ROOT)
   _play
     _wait_hms
   _play_smooth

 Address spaces:
Name               Size   Autos  Total    Cost      Usage
SFR3                 0      0       0       4        0.0%
BITSFR3              0      0       0       4        0.0%
BANK2               30      0       0       9        0.0%
BITBANK2            30      0       0       8        0.0%
SFR2                 0      0       0       5        0.0%
BITSFR2              0      0       0       5        0.0%
BANK1               50      0       0       7        0.0%
BITBANK1            50      0       0       6        0.0%
SFR1                 0      0       0       2        0.0%
BITSFR1              0      0       0       2        0.0%
BANK0               50      0       2       3        2.5%
BITBANK0            50      0       0       5        0.0%
SFR0                 0      0       0       1        0.0%
BITSFR0              0      0       0       1        0.0%
COMMON               E      E       E       1      100.0%
BITCOMMON            E      0       0       0        0.0%
CODE                 0      0       0       0        0.0%
DATA                 0      0      10      10        0.0%
ABS                  0      0      10       4        0.0%
NULL                 0      0       0       0        0.0%
STACK                0      0       0       2        0.0%
EEDATA              80      0       0       0        0.0%


Microchip Technology PIC Macro Assembler V1.36 build -262312587 
Symbol Table                                                                                   Fri Feb 19 23:30:05 2016

                      pc 0002              __CFG_CP$OFF 0000                       l79 07EF  
                     fsr 0004                      l701 0736                      l551 06D6  
                    l703 075B                      l717 0726                      l733 078F  
                    l761 07CD                      l749 07BD                      l757 07C7  
                    l773 07E2                      l767 07DB                      l777 07EB  
                    l795 06F4                      u305 079E                      u325 07B9  
                    u265 073F             __CFG_CPD$OFF 0000                      u517 06DF  
                    fsr0 0004          play@bytes_count 0073             __CFG_LVP$OFF 0000  
                   _main 06E5                     _play 0725                     btemp 007E  
                   ltemp 007E                     start 0000                     ttemp 007E  
                   wtemp 007E                    ?_main 0070                    ?_play 0073  
          __CFG_WDTE$OFF 0000                    _T1CON 0010                    _TMR1L 000E  
                  _PORTA 0005                    _PORTB 0006                    _TRISA 0085  
                  _TRISB 0086            __CFG_PWRTE$ON 0000           __CFG_BOREN$OFF 0000  
                  pclath 000A                    play@i 0078                    ltemp0 007E  
                  ltemp1 0082                    ltemp2 0086                    ltemp3 0080  
                  ttemp0 007E                    ttemp1 0081                    ttemp2 0084  
                  ttemp3 0087                    ttemp4 007F                    status 0003  
                  wtemp0 007E                    wtemp1 0080                    wtemp2 0082  
                  wtemp3 0084                    wtemp4 0086                    wtemp5 0088  
                  wtemp6 007F           play_smooth@inc 0079           __CFG_MCLRE$OFF 0000  
        __initialization 07F8             __end_of_main 0725             __end_of_play 077E  
                 ??_main 007D                   ??_play 0077             ?_play_smooth 0070  
                 _TMR1ON 0080                   play@fx 007C         __end_of_wait_hms 06E5  
__end_of__initialization 07FE          play_smooth@port 0078           __pcstackCOMMON 0070  
           __pidataBANK0 06D3           _play_smooth$62 0072               __pmaintext 06E5  
             __stringtab 0001     __size_of_play_smooth 007A                ?_wait_hms 0070  
                __ptext1 077E                  __ptext2 0725                  __ptext3 06D5  
     __end_of_STEPS_DROP 0073       __end_of_STEPS_INIT 00A6     end_of_initialization 07FE  
             ??_wait_hms 0070         play_smooth@value 007A         play_smooth@turns 0071  
    start_initialization 07F8              __pdataBANK0 0020                ___latbits 0000  
           play@reversed 0076               random@seed 0020        __size_of_wait_hms 0010  
              __pstrings 0001            ??_play_smooth 0070     __end_of_STEPS_VSHIFT 00A0  
            __stringbase 0006             play_smooth@i 0074             play_smooth@j 0076  
    __end_of_play_smooth 07F8       __end_of__stringtab 0007                play@turns 0074  
          __size_of_main 0040            __size_of_play 0059                 _wait_hms 06D5  
          wait_hms@count 0072                 play@i_46 007A              _play_smooth 077E  
              stringcode 0001             _STEPS_VSHIFT 0073                 stringdir 0001  
               stringtab 0001       __CFG_FOSC$INTOSCIO 0000               _STEPS_DROP 0007  
             _STEPS_INIT 00A0  
