:040000000128FE2FA6
:100F060070080339F200F20E250013087206CF3975
:100F1600720693007108F3007008F200F336F20CC3
:100F2600F336F20C72089100080021009D149D18FA
:100F36009A2F1C08F200F3017208F300F2017208FE
:100F4600F5007308F6001B087507F200760803180B
:100F5600760AF3007208F5007308F6007608F100C9
:100F66007508F000080021009913783099041908D3
:100F7600FC39023899000C148C100C118C110C12CF
:100F86008C122200981323000C14833021009D0537
:100F96001D141E088F3910389E009E170C1525004B
:100FA6001308F0390C3893003F309305FF302000CA
:100FB6009B0025009101CF30930520009110FC3055
:100FC6009C051C1521000C1198277108FB00700860
:100FD600FA007B08F1007A08F00083270330F90055
:100FE6000830F8007830F700F70BF72FF80BF72FDB
:0A0FF600F90BF72FE72F2000B62FAC
:020000040001F9
:04000E00E4C9FFDE64
:00000001FF
